:020000040800F2
:1000000060080020050400080B0200080D0200082B
:100010001102000815020008190200080000000083
:100020000000000000000000000000001D020008A9
:100030001F0200080000000021020008230200083F
:100040001F0400081F0400081F0400081F04000804
:100050001F0400081F0400081F0400081F040008F4
:100060001F0400081F0400081F0400081F040008E4
:100070001F0400081F0400081F0400081F040008D4
:100080001F0400081F0400081F0400081F040008C4
:100090001F0400081F0400081F0400081F040008B4
:1000A0001F0400089D2900081F0400081F04000801
:1000B0001F040008232200081F0400081F04000872
:1000C0001F0400081F0400081F0400081F04000884
:1000D0001F040008CF1F0008E72700081F040008BE
:1000E0001F0400081F0400081F0400081F04000864
:1000F0001F0400081F0400081F0400081F04000854
:100100001F0400081F0400080B2200081F04000839
:100110001F0400081F0400081F0400081F04000833
:100120001F0400081F0400081F0400081F04000823
:1001300000F002F800F03AF80AA090E8000C8244BF
:100140008344AAF10107DA4501D100F02FF8AFF29C
:10015000090EBAE80F0013F0010F18BFFB1A43F0A5
:1001600001031847E036000000370000103A24BFB2
:1001700078C878C1FAD8520724BF30C830C144BF0C
:1001800004680C607047000000230024002500264E
:10019000103A28BF78C1FBD8520728BF30C148BFEA
:1001A0000B6070471FB51FBD10B510BD02F034FDC8
:1001B0001146FFF7F7FF00F008F802F052FD03B414
:1001C000FFF7F2FF03BC01F0A7FE01F045FF01F0CD
:1001D0006BFF01F037FE4FF4E13002F0B5FA02F0A8
:1001E000EAF801F0CCFF632141F61F4002F026FA45
:1001F00041F61F41632002F077FA05E002F068FC47
:1002000001F040FF02F027FCF8E7704700BFFEE76F
:1002100000BFFEE700BFFEE700BFFEE77047704784
:10022000704770470CB50020019000906C48006842
:1002300040F480306A49086000BF6948006800F4F3
:10024000003000900198401C0190009818B9019866
:10025000B0F5A06FF1D16248006800F4003010B131
:100260000120009001E0002000900098012843D177
:100270005C48006840F010005A4908600846006871
:1002800020F0030008600846006840F002000860A3
:1002900053484068524948600846406848600846EC
:1002A000406840F4806048600846406820F47C1054
:1002B00048600846406840F4E81048600846006816
:1002C00040F08070086000BF4548006800F0007092
:1002D0000028F9D04248406820F0030040494860B7
:1002E0000846406840F00200486000BF3C48406853
:1002F00000F00C000828F9D10CBD10B5FFF792FFF3
:1003000010BD10B53648006840F00100344908605F
:10031000084640683449084031494860084600684A
:10032000324908402E4908600846006820F48020C1
:1003300008600846406820F4FE0048604FF41F0043
:100340008860FFF7DAFF4FF000602949086010BDB0
:1003500010B5002100200022214B5B6803F00C0146
:1003600021B1042906D0082928D107E0214B224CCD
:10037000236027E01F4B204C236023E0184B5B6871
:1003800003F47010164B5B6803F48032022303EB16
:10039000904022B9194B4343174C23600DE0104B9A
:1003A0005B6803F4003323B1144B4343124C2360C6
:1003B00003E0104B4343104C236003E00D4B0E4C05
:1003C000236000BF00BF064B5B68C3F303130C4CF4
:1003D000E15C094B1B68CB40074C236010BD00005B
:1003E00000100240002002400000FFF8FFFFF6FE70
:1003F00008ED00E000127A000000002000093D0036
:10040000040000200948804709480047FEE7FEE74E
:10041000FEE7FEE7FEE7FEE7FEE7FEE7FEE7FEE7B4
:1004200004480549054A064B7047000003030008CD
:1004300031010008600200206008002060040020F4
:100440006004002031490143314A1160704770B5A2
:10045000002100230F22C47804B32D4C246804F437
:10046000E064C4F5E064210AC1F10403CA404478A1
:1004700004FA03F18478144021430901254C0678DD
:10048000A155047804F01F050124AC4005786D11D6
:10049000AD0005F1E025C5F8004109E0047804F05D
:1004A0001F050124AC401C4D0678761145F8264006
:1004B00070BD1A4A0A400243154B1B1F1A60704751
:1004C00039B1134A121D12680243114B1B1D1A60E9
:1004D00006E00F4A121D126882430D4B1B1D1A6065
:1004E0007047042808D14FF0E021096941F0040168
:1004F0004FF0E022116107E04FF0E021096921F09F
:1005000004014FF0E0221161704700000000FA057D
:100510000CED00E000E400E080E100E080FFFF1F60
:1005200010B50446CC48844208D10121042000F0D3
:100530002DFB0021042000F029FB46E0C74884423F
:1005400008D10121082000F021FB0021082000F043
:100550001DFB3AE0C248844208D10121102000F07E
:1005600015FB0021102000F011FB2EE0BD48844255
:1005700008D10121202000F009FB0021202000F0FB
:1005800005FB22E0B848844208D10121402000F058
:10059000FDFA0021402000F0F9FA16E0B348844249
:1005A00008D10121802000F0F1FA0021802000F024
:1005B000EDFA0AE0AE48844207D10121801500F02F
:1005C000E5FA0021A01500F0E1FA10BD10B50121F7
:1005D000084600F0DBFA0021012000F0D7FA10BD38
:1005E0002DE9F041024600250026002000230024CA
:1005F000002791F803C00CF00F0591F803C00CF030
:10060000100CBCF1000F03D091F802C04CEA0505B4
:1006100091F800C0BCF1000F31D0146800202BE02D
:100620004FF0010C0CFA00F3B1F800C00CEA03061D
:100630009E4220D183004FF00F0C0CFA03F7BC430D
:1006400005FA03FC4CEA040491F803C0BCF1280F3E
:1006500006D14FF0010C0CFA00FCC2F814C00AE0FD
:1006600091F803C0BCF1480F05D14FF0010C0CFA12
:1006700000FCC2F810C0401C0828D1D31460B1F8A7
:1006800000C0BCF1FF0F34DD546800202EE000F103
:10069000080C4FF0010808FA0CF3B1F800C00CEA9E
:1006A00003069E4221D183004FF00F0C0CFA03F792
:1006B000BC4305FA03FC4CEA040491F803C0BCF106
:1006C000280F05D100F1080C08FA0CF8C2F81480C4
:1006D00091F803C0BCF1480F07D100F1080C4FF0AE
:1006E000010808FA0CF8C2F81080401C0828CED384
:1006F0005460BDE8F0814FF6FF71018002218170E6
:100700000421C17070470246002093680B400BB172
:10071000012000E0002070470146886880B27047E1
:1007200002460020D3680B400BB1012000E00020FE
:1007300070470146C86880B27047016170474161E7
:1007400070470AB1016100E041617047C1607047C4
:100750004FF480320A4382618161826182698269D9
:10076000704702460020434B18684FF680731840CC
:1007700040EA021008433F4B186070473E49C86189
:100780007047F0B50A46002300240021002500F040
:100790000046B6F1004F02D1364EF16901E0354E08
:1007A0007168C0F3034583B200F44016B6F5401FEC
:1007B00008D121F070612F4E766826F070662D4FBB
:1007C0007E6012E000F48016B6F5801F06D1032685
:1007D00006FA05F4A14341F0706106E0460D3601CA
:1007E00003FA06F6B14341F0706122B1460D3601BD
:1007F00003FA06F6314300F00046B6F1004F02D18D
:100800001C4EF16101E01B4E7160F0BD30B500225D
:100810008B071C0F0F2303FA04F2164B08338C10BE
:1008200053F824309343134C08348D1044F825308A
:1008300023468C1053F824308C07240F00FA04F45C
:1008400023430C4C08348D1044F8253030BD0A4940
:10085000DC3108607047000000080140000C0140D6
:10086000001001400014014000180140001C01402C
:10087000002001400000014000002042DF480068E5
:1008800040F00100DD49086008464068DC49084046
:10089000DA49486008460068DA490840D7490860E4
:1008A0000846006820F4802008600846406820F46C
:1008B000FE0048604FF41F0088607047CF49096808
:1008C00021F48031CD4A11601146096821F480215C
:1008D0001160B0F5803F03D0B0F5802F0ED106E057
:1008E000C649096841F48031C44A116007E0C34930
:1008F000096841F4A021C14A116000E000BF00BFB7
:10090000704710B501460022002300204A11012A39
:1009100002D1BA4C236806E0022A02D1B74C236AFE
:1009200001E0B64C636A01F01F02012494401C40B0
:100930000CB1012000E0002010BD38B5002000906F
:100940000024002500BF3120FFF7DBFF054600989B
:10095000401C00900098B0F5A06F01D0002DF2D09F
:100960003120FFF7CEFF08B1012400E0002420462B
:1009700038BD01460020A14A106820F0F80040EA86
:10098000C10010607047A04908607047024600200F
:100990009A4B586820F47C1042EA01031843974BA5
:1009A0005860704798490866704701460020934A8E
:1009B000506820F003000843506070478F4840683B
:1009C00000F00C007047014600208C4A506820F06F
:1009D000F00008435060704701460020874A506885
:1009E00020F4E06008435060704701460020834ACD
:1009F000506820F4605040EAC1005060704729B14F
:100A00007E4A527A02437D4B5A7204E07B4A527A04
:100A100082437A4B5A7270477B49D83108607047DD
:100A200001460020754A506820F440400843506059
:100A300070470021714A20321170704A82F82010EC
:100A4000012802D004280AD104E001216B4A203297
:100A5000117005E00521694A2032117000E000BFE5
:100A600000BF70476949086070476449096A0143DB
:100A7000624A11627047654944390860704730B571
:100A800000210022002400235C4D6D6805F00C015C
:100A900021B1042905D0082923D105E05C4D05606A
:100AA00022E05B4D05601FE0544D6D6805F4701247
:100AB000524D6D6805F48034022505EB92421CB955
:100AC000544D554305600BE04C4D6D6805F4003501
:100AD0001DB1504D5543056002E04D4D5543056035
:100AE00002E04B4D056000BF00BF444D6D6805F04E
:100AF000F0010909484D6B5C0568DD4045603F4DDC
:100B00006D6805F4E061090A434D6B5C4568DD40A2
:100B100085603A4D6D6805F46051C90A3E4D6B5CC5
:100B20004568DD40C560354D6D6805F44041890B71
:100B30003A4D6B5CC568B5FBF3F5056130BD29B175
:100B40002E4A526902432D4B5A6104E02B4A5269E6
:100B500082432A4B5A61704729B1284A926902435D
:100B6000264B9A6104E0254A92698243234B9A619D
:100B7000704729B1214AD2690243204BDA6104E06F
:100B80001E4AD26982431D4BDA61704729B11B4A64
:100B9000D2680243194BDA6004E0184AD2688243F3
:100BA000164BDA60704729B1144A12690243134B9D
:100BB0001A6104E0114A12698243104B1A617047AE
:100BC00012494039086070470F49C86470470B49A3
:100BD000C87170470948406A40F080700749486210
:100BE000704701460020054A92680A400AB1012078
:100BF00000E00020704701498872704700100240F1
:100C00000000FFF8FFFFF6FE00004242800442426F
:100C100000127A0000093D0014000020240000208A
:100C200010B50446FE48844208D10121C014FFF7E4
:100C3000ADFF0021E014FFF7A9FFC4E0B4F1804F3D
:100C400008D101210846FFF7AEFF00210120FFF780
:100C5000AAFFB8E0F348844208D101210220FFF73F
:100C6000A2FF00210220FFF79EFFACE0EE48844285
:100C700008D101210420FFF796FF00210420FFF78F
:100C800092FFA0E0E948844208D101210820FFF743
:100C90008AFF00210820FFF786FF94E0E4488442A1
:100CA00008D101211020FFF77EFF00211020FFF75F
:100CB0007AFF88E0DF48844208D101212020FFF735
:100CC00072FF00212020FFF76EFF7CE0DA488442AB
:100CD00008D101214014FFF759FF00216014FFF7EC
:100CE00055FF70E0D548844209D10121C804FFF7BF
:100CF0004DFF00214FF40020FFF748FF63E0D0488C
:100D0000844209D101210805FFF740FF00214FF47B
:100D10008010FFF73BFF56E0CA48844209D1012109
:100D20004805FFF733FF00214FF40010FFF72EFFB7
:100D300049E0C548844208D101214020FFF733FF34
:100D400000214020FFF72FFF3DE0C048844208D13A
:100D500001218020FFF727FF00218020FFF723FFDC
:100D600031E0BB48844208D101218015FFF71BFF09
:100D70000021A015FFF717FF25E0B648844209D1EE
:100D800001210804FFF702FF00214FF48030FFF734
:100D9000FDFE18E0B048844209D101214804FFF764
:100DA000F5FE00214FF40030FFF7F0FE0BE0AB48FA
:100DB000844208D101218804FFF7E8FE00214FF4A6
:100DC0008020FFF7E3FE10BD00220288944B98427A
:100DD0000ED0994B98420BD0B0F1804F08D0914B78
:100DE000984205D0904B984202D0904B984204D143
:100DF0004FF68F731A404B881A438D4B984207D099
:100E00008C4B984204D04FF6FF431A40CB881A43CC
:100E100002808B8883850B880385814B98420BD099
:100E2000854B984208D08B4B984205D08A4B98420C
:100E300002D08A4B984201D10B7A03860123838228
:100E4000704770B5002400220023058C4FF6FE7613
:100E500035400584028C8388048B4FF68F752C40B7
:100E6000B51E2C400D882C43751E2A400D892A433F
:100E70004D882A436A4DA8420BD06F4DA84208D036
:100E8000744DA84205D0744DA84202D0734DA842BB
:100E900013D14FF6F7752A404D892A434FF6FB755B
:100EA0002A408D882A434FF6FF652B404FF6FF55A9
:100EB0002B408D892B43CD892B4383800483CD88A0
:100EC0008586028470BD70B5002400220023058C45
:100ED0004FF6EF7635400584028C8388048B48F604
:100EE000FF752C404FF6FF452C400D884FF6FF76DE
:100EF00006EA05252C434FF6DF752A400D8906EAE0
:100F000005152A434D8806EA05152A43444DA84293
:100F100002D0494DA8421DD14FF67F752A404D8918
:100F20004FF6FF7606EA05152A434FF6BF752A40AD
:100F30008D8806EA05152A434FF6FF352B404FF200
:100F4000FF752B408D8906EA85052B43CD8906EA7E
:100F500085052B4383800483CD880587028470BD7B
:100F600070B5002400220023058C4FF6FF66354043
:100F70000584028C8388848B4FF68F752C404FF646
:100F8000FC752C400D882C434FF6FF552A400D89E7
:100F90004FF6FF7606EA05252A434D8806EA052521
:100FA0002A431F4DA84202D0234DA8421DD14FF223
:100FB000FF752A404D894FF6FF7606EA05252A433C
:100FC0004FF6FF352A408D8806EA05252A434EF65E
:100FD000FF752B404DF6FF752B408D8906EA0515F0
:100FE0002B43CD8906EA05152B4383808483CD8866
:100FF0008587028470BD70B5002200230024058C13
:101000004EF6FF7635400584038C8488828B48F643
:10101000FF752A404FF6FF452A400D8820E000006A
:10102000002C01400004004000080040000C00407B
:10103000001000400014004000340140004C01400A
:10104000005001400054014000180040001C0040C6
:1010500000200040004001400044014000480140A1
:101060004FF6FF7606EA05252A434DF6FF752B401D
:101070000D8906EA05352B434D8806EA05352B43D5
:10108000FA4DA84202D0FA4DA84208D14BF6FF759E
:101090002C408D894FF6FF7606EA85152C43848017
:1010A0008283CD88A0F84050038470BD828B4FF2BC
:1010B000FF331A408283828B4FF6FF7303EA0123CA
:1010C0001A4382837047F0B50C4615460022002172
:1010D0000026078C4EF6FF7C07EA0C070784828BFC
:1010E000018C4FF6FF7707EA043640F6FF473A4097
:1010F0004FF6FF7707EA05273A434FF6FF7707EAEF
:1011000003373A43D94FB8420ED0D94FB8420BD02B
:10111000B0F1804F08D0D74FB84205D0D64FB84273
:1011200002D0D64FB84206D14DF6FF77394046F48B
:101130008057394305E047F6FF57394044F480575C
:10114000394382830184F0BD828B4FF6F3731A40DA
:101150008283828B0A4382837047F0B50C46154622
:10116000002200210026078C4FF6FF6C07EA0C07CF
:101170000784828B018C4FF6FF7707EA04264FF62F
:101180000C773A404FF6FF7707EA03172F433A43AD
:10119000B64FB8420ED0B64FB8420BD0B0F1804F28
:1011A00008D0B44FB84205D0B34FB84202D0B34FC5
:1011B000B84206D14FF6FF57394046F4807739439D
:1011C00005E04FF2FF57394044F48077394382837A
:1011D0000184F0BD028B4FF2FF331A400283028B71
:1011E0004FF6FF7303EA01231A4302837047F0B5F9
:1011F0000C461546002200210026078C4FF6EF7C96
:1012000007EA0C070784028B018C4FF6FF7707EA89
:10121000041640F6FF473A404FF6FF7707EA0337D8
:101220003A434FF6FF7707EA05273A438F4FB84214
:101230000ED08F4FB8420BD0B0F1804F08D08D4FF9
:10124000B84205D08C4FB84202D08C4FB84206D17C
:101250004FF6DF77394046F01007394305E04FF687
:101260005F77394044F01007394302830184F0BDB1
:10127000028B4FF6F3731A400283028B0A430283F8
:101280007047F0B50C46154600220021068C4FF63B
:10129000FE773E400684028B018C4FF60C7632407E
:1012A0007E1C06EA03162E433243704EB0420ED027
:1012B0006F4EB0420BD0B0F1804F08D06D4EB042AF
:1012C00005D06D4EB04202D06C4EB04206D14FF602
:1012D000FD76314044F00106314305E04FF6F576E6
:1012E000314044F00106314302830184F0BD70B502
:1012F00005460C465D4885420ED05D4885420BD0C0
:10130000B5F1804F08D05B48854205D05A488542E8
:1013100002D05A48854200D100E000BF208850B971
:101320002389A28861882846FFF7ABFFE188284619
:10133000FFF79EFF25E0208804280AD12389A28890
:1013400061882846FFF753FFE1882846FFF742FFF0
:1013500017E0208808280AD12389A28861882846B6
:10136000FFF7FBFEE1882846FFF7EEFE09E0238940
:10137000A28861882846FFF7A6FEE1882846FFF785
:1013800095FE70BD2DE9F04105460C46002601276B
:10139000608808B9022600E00026A088012801D153
:1013A000022700E001272088A0B92389A28861884C
:1013B0002846FFF766FFE1882846FFF759FF238993
:1013C0003A4631462846FFF712FFE1882846FFF7E4
:1013D00001FF13E02389A28861882846FFF707FFF1
:1013E000E1882846FFF7F6FE23893A46314628462B
:1013F000FFF747FFE1882846FFF73AFFBDE8F08195
:101400000A884B881A438B881A43CB881A430B8966
:101410001A434B891A438B891A43A0F8442070471A
:101420004FF6FF71818000210180C18041800172EF
:1014300070470021018041808180C180018141810C
:101440008181C1817047002101804180012181801B
:101450000021C1800181704700210180418081808D
:10146000C18001814181818170470000002C0140D1
:10147000003401400004004000080040000C00401F
:1014800021B1028842F00102028004E002884FF696
:10149000FE731A400280704731B1B0F8442042F424
:1014A0000042A0F8442005E0B0F84420C2F30E0248
:1014B000A0F8442070471AB183890B43838102E06E
:1014C00083898B43838170478182704741EA02039D
:1014D000A0F8483070471AB183890B43838102E03A
:1014E00083898B438381704701894FF6F8721140DD
:1014F000018170470A46002101894FF68F73194018
:1015000011430181704730B504460D4629462046F7
:10151000FFF7F0FF208940F00700208130BD2DE962
:10152000F04104460D4616461F46602D06D13B4647
:10153000012231462046FFF75AFE05E03B460122D4
:1015400031462046FFF79DFE29462046FFF7D2FF91
:10155000208940F007002081BDE8F08130B50C46BD
:1015600000210189C9B24FF6FF7505EA032515432D
:1015700025432943018130BD2DE9F04105460E4642
:1015800017469846002443463A4631462846FFF718
:10159000E5FF2C894FF6F870044044F007044FF63D
:1015A0008F70044044F070042C81BDE8F081F0B5E8
:1015B00004460D4616461F463B46324629462046FF
:1015C000FFF7CCFF208940F480402081F0BD0185E9
:1015D000828270470A46002101884FF68F731940B6
:1015E000114301807047F0B50C4615461E46002198
:1015F000002200230189028B038C4FF6F8773940D3
:1016000021434FF6FC473A4040F201173A434FF668
:10161000DD773B404FF6FF7707EA06172F433B4342
:10162000018102830384F0BD0A460021018B4FF63D
:101630008F7319401143018370470A460021018BC3
:1016400048F6FF7319404FF6FF7303EA022319436C
:10165000018370470A460021818B4FF68F73194032
:101660001143818370470A460021818B48F6FF733E
:1016700019404FF6FF7303EA022319438183704731
:1016800021B1028842F08002028004E002884FF615
:101690007F731A400280704721B1828842F00402B1
:1016A000828004E082884FF6FB731A408280704784
:1016B00021B1828842F00802828004E082884FF6DD
:1016C000F7731A408280704721B1828842F001028C
:1016D000828004E082884FF6FE731A408280704751
:1016E0000A460021018B4FF6F7731940114301831D
:1016F00070470A460021018B4FF2FF7319404FF6E5
:10170000FF7303EA02231943018370470A4600214D
:10171000818B4FF6F77319401143818370470A4656
:101720000021818B4FF2FF7319404FF6FF7303EADC
:1017300002231943818370470A460021018B4FF62B
:10174000FB7319401143018370470A460021018B46
:101750004FF6FF3319404FF6FF7303EA0223194394
:10176000018370470A460021818B4FF6FB731940B5
:101770001143818370470A460021818B4FF6FF3366
:1017800019404FF6FF7303EA022319438183704720
:101790000A460021018B4FF67F73194011430183E4
:1017A00070470A460021018BC1F30E014FF6FF730B
:1017B00003EA02231943018370470A460021818B03
:1017C0004FF67F7319401143818370470A46002109
:1017D000818BC1F30E014FF6FF7303EA0223194315
:1017E000818370470A460021018C4FF6FD73194032
:1017F0001143018470470A460021018C4FF6F773AC
:1018000019401143018470470A460021018C4FF6AC
:10181000DF7319404FF6FF7303EA02131943018483
:1018200070470A460021018C4FF67F7319404FF62E
:10183000FF7303EA02131943018470470A4600212B
:10184000018C4FF6FF5319404FF6FF7303EA022352
:101850001943018470470A460021018C4FF2FF733F
:1018600019404FF6FF7303EA0223194301847047BE
:101870000A460021018C4DF6FF7319404FF6FF73A5
:1018800003EA023319430184704730B50023012471
:101890008C40A3B2048C9C430484048C02FA01F5AE
:1018A000ADB22C43048430BD30B5002304248C40F9
:1018B000A3B2048C9C430484048C02FA01F5ADB2FB
:1018C0002C43048430BD70B5034600200024184624
:1018D000183001258D40ACB21D8CA5431D8409B183
:1018E000082909D100EB6100056825F07005056045
:1018F0000568154305600EE00D1FC5F34E0528442D
:10190000056825F4E045056005684FF6FF7606EAB0
:1019100002263543056070BD21B1028842F0020203
:10192000028004E002884FF6FD731A40028070477F
:1019300021B1028842F00402028004E002884FF6DE
:10194000FB731A400280704721B1828842F0800206
:10195000828004E082884FF67F731A40828070474D
:1019600002884FF6F7731A40028002880A43028009
:10197000704782884FF68F731A40828082880A43AC
:101980008280704702894FF6F8731A4002810289FB
:101990000A430281704702894FF67F731A40028121
:1019A00002890A43028170478184704781857047AC
:1019B000818670470187704781877047A0F8401083
:1019C000704702884FF6FF431A40028002880A439C
:1019D000028070470146888E70470146088F704725
:1019E0000146888F70470146B1F8400070470146B4
:1019F000888C70470146088D704702460020138A84
:101A00000B400BB1012000E000207047CA43028266
:101A1000704730B50246002000230024158A05EAED
:101A20000103958905EA010413B10CB1012000E01E
:101A3000002030BDCA4302827047000010B5044642
:101A4000FB48844209D101218803FFF79FF8002158
:101A50004FF48040FFF79AF832E0F648844209D10B
:101A600001214804FFF79FF800214FF40030FFF7F1
:101A70009AF825E0F048844209D101218804FFF753
:101A800092F800214FF48020FFF78DF818E0EB4822
:101A9000844209D10121C804FFF785F800214FF4E1
:101AA0000020FFF780F80BE0E548844208D10121CF
:101AB0000805FFF778F800214FF48010FFF773F85E
:101AC00010BD2DE9F04786B005460E460024A2461B
:101AD00000BFA1460027B08900B100BF2F462C8A65
:101AE0004CF6FF700440F08804432C82AC894EF61B
:101AF000F3100440B08831890843718908430443D6
:101B0000AC81AC8A4FF6FF400440B0890443AC82FC
:101B100001A8FEF7B4FFC648874202D1DDF810A045
:101B200001E0DDF80CA0A88900F4004040B10AEB08
:101B3000CA0000EB0A1031684900B0FBF1F807E079
:101B40000AEBCA0000EB0A1031688900B0FBF1F81B
:101B50006420B8FBF0F004012009642101FB108926
:101B6000A88900F4004040B1322000EBC900B0FB6E
:101B7000F1F000F00700044308E0322000EB091008
:101B80006421B0FBF1F000F00F0004432C8106B09B
:101B9000BDE8F0874FF41651016000218180C180BB
:101BA00001810C21418100218181704710B50246DD
:101BB0000020108A4FF2FF0318400B884C88234303
:101BC0008C882343CC8823431843108210BD002106
:101BD000018041808180C180704721B1828942F4B7
:101BE0000052828104E082894DF6FF731A4082819F
:101BF0007047F0B50346002400260025002040F67B
:101C00006A17B94200D100BF1846C1F3421401F06F
:101C10001F06012707FA06F5012C01D10C3004E05C
:101C2000022C01D1103000E014301AB107682F43A4
:101C3000076002E00768AF430760F0BD1AB1838A0E
:101C40000B43838202E0838A8B4383827047028A3C
:101C50004FF6F0731A400282028A0A4302827047EA
:101C600082894FF2FF731A40828182890A438281FE
:101C7000704721B1828942F00202828104E08289A8
:101C80004FF6FD731A4082817047028A4FF6DF7368
:101C90001A400282028A0A430282704721B1028AF4
:101CA00042F48042028204E0028A4BF6FF731A403B
:101CB00002827047C1F3080282807047014688881B
:101CC000C0F308007047818941F0010181817047AC
:101CD000028BD2B20283028B42EA01220283704756
:101CE000028B02F47F420283028B0A430283704715
:101CF00021B1828A42F02002828204E0828A4FF679
:101D0000DF731A408282704721B1828A42F010024A
:101D1000828204E0828A4FF6EF731A408282704713
:101D200021B1828A42F00802828204E0828A4FF660
:101D3000F7731A408282704721B1828942F40042CF
:101D4000828103E08289C2F30E028281704721B151
:101D5000828A42F40062828204E0828A4FF2FF7338
:101D60001A4082827047828A4FF6FB731A40828241
:101D7000828A0A438282704721B1828A42F002023B
:101D8000828204E0828A4FF6FD731A408282704795
:101D900002460020B1F5007F00D100BF13880B4040
:101DA0000BB1012000E00020704701F40072B2F591
:101DB000007F00D100BFCA430280704770B5024661
:101DC000002400230025002040F66A16B14200D10D
:101DD00000BFC1F3421501F01F03012606FA03F309
:101DE000012D02D19689334006E0022D02D1168AD8
:101DF000334001E0968A33400C12012606FA04F4BF
:101E00001688344013B10CB1012000E0002070BDF1
:101E100010B50022002340F66A14A14200D100BF91
:101E20000A1201249440A3B2DC43048010BD0000D8
:101E3000003801400044004000480040004C004091
:101E40000050004010B56FF00400FEF74AFB2E482A
:101E500000682E49B0FBF1F02D4908700846007863
:101E600000EB4001C1EBC0104FF6FF7101EAC0006A
:101E70002849088010BD0146254A12784A434FF090
:101E8000E0235A6100229A611A46126942F0010267
:101E90001A6100BF4FF0E022106900F001021AB190
:101EA00000F48032002AF5D04FF0E022126922F0CF
:101EB00001024FF0E0231A6100229A617047014647
:101EC000144A12884A434FF0E0235A6100229A6173
:101ED0001A46126942F001021A6100BF4FF0E02277
:101EE000106900F001021AB100F48032002AF5D026
:101EF0004FF0E022126922F001024FF0E0231A6154
:101F000000229A61704700000000002000127A0051
:101F1000280000202A000020014600BF704700BFB3
:101F2000494A128802F04002002AF9D0C2B2464B58
:101F30001B1D1A80704710B586B00446012144F27B
:101F40000400FEF709FE4FF40070ADF81400032002
:101F50008DF8160018208DF8170005A93B48FEF7EC
:101F60003FFB4FF48060ADF8140004208DF817009B
:101F700005A93648FEF734FB25208DF80000032024
:101F80008DF801008DF8020001208DF803006846ED
:101F9000FEF75DFA01940020ADF80800ADF80A00E4
:101FA000ADF80C00ADF810000C20ADF80E0001A942
:101FB0002548FFF786FD012240F225512248FFF710
:101FC00018FE01212048FFF708FE06B010BD10B52D
:101FD00040F225511C48FFF7F1FE10B31A48FFF7F5
:101FE0006DFEC4B21A48008800F40040C8B9184811
:101FF000008800F4804060B10A2C03D0002014490E
:10200000088020E01248008840F400401049088011
:1020100019E00D2C06D10E48008840F480400C4990
:10202000088010E00A480088C0F30D0009490C54EC
:1020300007480088401C0649088008460088C728D1
:1020400001DD0020088010BD00380140000801407B
:10205000300000207000002008B501211020FEF79C
:102060007BFD10208DF803000320ADF800008DF8F3
:10207000020069460B48FEF7B3FA03210948FEF750
:102080005CFB08BD10B501210648FEF758FB642033
:10209000FFF715FF01210348FEF74FFB6420FFF710
:1020A0000EFF10BD0010014008B501210D48FEF7DC
:1020B00068FB01214420FEF74FFD28208DF8030026
:1020C0000120ADF8000069460748FEF789FA48206C
:1020D0008DF803001C20ADF8000069460348FEF7A8
:1020E0007FFA08BD000230000008014000180140DE
:1020F00000B587B001210420FEF72EFD0121082044
:10210000FEF737FD04208DF81B000320ADF8180002
:1021100006A94A48FEF764FA4FF6FF70ADF81000C2
:102120000020ADF80C00ADF812002020ADF80E0034
:1021300003A94348FEF748FE00231A4603214048FE
:10214000FFF751FA6846FFF77EF90A20ADF808005C
:1021500069463B48FFF7CBF801213948FFF756FCA9
:10216000012211463648FFF7A6F900213448FFF74F
:102170001BFC01213248FFF783F907B000BD00B511
:1021800087B001210420FEF7E7FC01210220FEF7C1
:10219000F0FC04208DF81B00C020ADF8180006A943
:1021A0002648FEF71DFA4FF6FF70ADF8100000202C
:1021B000ADF80C00ADF81200ADF80E0003A92148EF
:1021C000FEF702FE00231A4603211E48FFF70BFA12
:1021D0006846FFF738F90A20ADF808006946194843
:1021E000FFF785F801211748FFF710FC012211467F
:1021F0001448FFF760F900211248FFF7D5FB0121D1
:102200001048FFF73DF907B000BD10B501210C489B
:10221000FFF7FFFB012803D101210948FFF70AFC62
:1022200010BD10B501210748FFF7F3FB012803D1CA
:1022300001210448FFF7FEFB10BD0000000801402B
:10224000000C00400004004010B54FF48071F848C5
:10225000FEF773FA4FF40041F548FEF76EFA4FF4BB
:102260000041F348FEF76BFA4FF48071F048FEF737
:1022700066FA10BD10B54FF48071ED48FEF75DFAB7
:102280004FF40041EA48FEF75AFA4FF40041E8489B
:10229000FEF753FA10BD10B54FF48071E448FEF715
:1022A0004CFA4FF48071E248FEF749FA10BD2DE96F
:1022B000F04105462C464FF48071DD48FEF73FFAA9
:1022C00000261CE0274607F08007802F04D1390242
:1022D000D748FEF732FA04E04FF40041D448FEF745
:1022E0002EFA6006040E4FF48071D148FEF725FAED
:1022F0004FF48071CE48FEF722FA701CC6B2082E49
:10230000E0DBBDE8F08110B50446FFF79DFF7820C3
:10231000FFF7CDFFFFF7BFFF0020FFF7C8FFFFF774
:10232000BAFF2046FFF7C3FFFFF7B5FFFFF7A2FF95
:1023300010BD10B50446FFF787FF7820FFF7B7FF01
:10234000FFF7A9FF4020FFF7B2FFFFF7A4FF2046E9
:10235000FFF7ADFFFFF79FFFFFF78CFF10BD70B5D4
:1023600005460C461CB12846FFF7E3FF02E028466D
:10237000FFF7C9FF70BD70B5002419E004F1B0018A
:10238000C8B20021FFF7EBFF00210846FFF7E7FF87
:1023900000211020FFF7E3FF002505E001210020C8
:1023A000FFF7DDFF681CC5B2802DF7DB601CC4B2EF
:1023B000082CE3DB70BD08B501210802FEF7CCFB59
:1023C00010208DF803004FF40140ADF80000032009
:1023D0008DF8020069469648FEF702F94FF48071C5
:1023E0009348FEF7AAF94FF400419148FEF7A5F98A
:1023F000C820FFF764FD0021AE20FFF7B0FF0021E9
:102400004020FFF7ACFF0021B020FFF7A8FF00211C
:10241000C820FFF7A4FF00218120FFF7A0FF0021C3
:10242000FF20FFF79CFF0021A120FFF798FF00216C
:10243000A620FFF794FF0021A820FFF790FF0021BE
:102440001F20FFF78CFF0021D320FFF788FF00211A
:102450000846FFF784FF0021D520FFF780FF002109
:10246000F020FFF77CFF0021D920FFF778FF002143
:102470002220FFF774FF0021DA20FFF770FF002110
:102480000220FFF76CFF0021DB20FFF768FF00212F
:102490004920FFF764FF00218D20FFF760FF002136
:1024A0001420FFF75CFF0021AF20FFF758FFFFF774
:1024B00062FF08BD70B504460D4605F1B001C8B213
:1024C0000021FFF74CFF102141EA14100021FFF713
:1024D00046FF04F00F000021FFF741FF70BD2DE91A
:1024E000F04707460E46904699460025A8F1200081
:1024F000C5B27F2F02DD0027B01CC6B2B9F1100FA4
:1025000024D131463846FFF7D5FF002408E004EB1C
:102510000511484A505C0121FFF721FF601CC4B23D
:10252000082CF4DB701CC1B23846FFF7C3FF00244F
:1025300009E004EB051108313E4A505C0121FFF728
:102540000EFF601CC4B2082CF3DB12E031463846A3
:10255000FFF7B0FF00240AE005EB4501364A02EB25
:102560004101085D0121FFF7FAFE601CC4B2062C90
:10257000F2DBBDE8F0872DE9F04704460E4617462A
:102580009846DDF8209000250FE07A5D43463146FD
:102590002046FFF7A4FF04F10800C4B2802C02DD3E
:1025A0000024B01CC6B2681CC5B2785D0028ECD10E
:1025B0000FE04346202231462046FFF790FF04F10A
:1025C0000800C4B2802C02DD0024B01CC6B2681C16
:1025D000C5B24D45EDDBBDE8F08770B502460D464E
:1025E0000026294632B9302001F8010B002008707E
:1025F000284670BD002A03DA2D2001F8010B524253
:1026000042F210730DE092FBF3F404B936B104F119
:10261000300001F8010B04FB132201260A2093FB72
:10262000F0F3002BEFDC002008702846E1E7000003
:1026300000200140523200082A30000830B589B02D
:1026400005460C4601210920FEF786FA01210420E7
:10265000FEF78FFA18208DF823004FF47070ADF854
:10266000200003208DF8220008A91D48FDF7B8FFBF
:10267000ADF81850ADF814400020ADF81A00ADF8D0
:10268000160005A91748FEF79FFB6020ADF804006F
:102690000020ADF80C000120ADF806000020ADF8D8
:1026A0000A0001A90F48FEF7CCFB01A90D48FEF76F
:1026B0000AFC01210B48FEF7EFFE08210948FFF74D
:1026C0000FF808210748FFF714F801210548FEF725
:1026D000D7FF01210348FEF7D3FE09B030BD00004B
:1026E000000C0140000800407FB505460C46012162
:1026F000C802FEF731FA0020ADF80A00ADF8060076
:10270000ADF80850ADF8044001A90E48FEF75CFB97
:10271000012211460B48FEF7CEFE19208DF800006D
:1027200001208DF8030000208DF8010003208DF8B2
:1027300002006846FDF78BFE01210248FEF7A0FE6D
:102740007FBD0000002C014010B586B00446012179
:102750000420FEF701FA01214804FEF70AFA1820C6
:102760008DF817000420ADF8140003208DF8160032
:1027700005A94748FDF734FF04208DF8170008200D
:10278000ADF8140005A94248FDF72AFF26208DF870
:10279000000001208DF8030000208DF801000220C8
:1027A0008DF802006846FDF752FE01940020ADF856
:1027B00010000C20ADF80E000020ADF80C00ADF8B4
:1027C0000A00ADF8080001A93248FFF77AF90122A2
:1027D00040F225512F48FFF70CFA01212D48FFF751
:1027E000FCF906B010BD10B540F225512948FFF79D
:1027F000E5FA10B32748FFF761FAC4B2264800880B
:1028000000F40040C8B92448008800F4804060B15A
:102810000A2C03D000202049088020E01E480088B0
:1028200040F400401C49088019E00D2C06D11A48DC
:10283000008840F480401849088010E0164800885D
:10284000C0F30D0015490C5413480088401C124970
:10285000088008460088C82801DD0020088010BDD7
:1028600070B50546284600F0B4F9C6B200240CE065
:10287000295D0848FFF71EFA00BF80210548FFF7D1
:1028800087FA0028F9D0601CC4B2B442F0DB70BDF6
:1028900000080140004400403200002038010020C0
:1028A0000146002901DA484200E00846704710B5A9
:1028B0007A480068FFF7F4FF84B221467848FFF7B2
:1028C00077F810BD41F6BC30744909684242914224
:1028D00002DA4142714A116070490968814201DDA2
:1028E0006E49086070472DE9FE4F04460D46661B91
:1028F000304600F041FA83466A480168584600F0C5
:1029000053FA8246304600F037FA00906648016874
:10291000009800F015FB834664480168584600F0B3
:1029200043FA5146019000F0A9F98146384600F07B
:1029300023FA4946029000F0A1F9804600F000FA1F
:102940000746304600F018FA574908603846BDE897
:10295000FE8F70B50546032D02D0052D12D108E07B
:102960005348FFF744F8044600215148FFF71CF88C
:102970000AE05048FFF73BF8044600214D48FFF7B6
:1029800013F801E0002400BF00BF4EF6602084422F
:1029900002DD4FF6FF70041B204670BD10B501210B
:1029A0004548FFF736F8E0B101214348FFF742F808
:1029B0000320FFF7CEFF414908604148006808B98D
:1029C000012000E000203E4908603E4801683B4885
:1029D0000068FFF788FF31490860FFF773FFFFF7D2
:1029E00066FF10BD08B501210820FEF7B5F81020DC
:1029F0008DF803003C20ADF8000003208DF80200A4
:102A000069463148FDF7ECFD08BD10B50446012CC0
:102A100010D110212C48FDF790FE20212A48FDF707
:102A20008EFE04212848FDF788FE08212648FDF780
:102A300086FE0FE010212448FDF781FE2021224868
:102A4000FDF77BFE04212048FDF779FE08211E4892
:102A5000FDF773FE10BD1D48006820B919480068D5
:102A60000A30184908601948001D006820B9154847
:102A700000680A381349086012480068002802DA22
:102A80000020104908600F480068B0F5167F03DD8C
:102A90004FF416700B490860704700006800002072
:102AA000000800405C0000204C000020580000207E
:102AB00000040040000C0040002C01403C000020BD
:102AC0008401224244000020000C014008012342FE
:102AD0001FB50A20082330A2002100900846FFF706
:102AE0004AFD01A92E480068FFF777FD0A20082358
:102AF00001AA002100902D20FFF73DFD01A92948E2
:102B00000068FFF76AFD0A20082301AA002100904F
:102B10005A20FFF730FD0A20082323A2012100904C
:102B20000020FFF728FD01A922480068FFF755FDA6
:102B30000520082301AA012100905020FFF71BFD6A
:102B40000A2008231CA2022100900020FFF713FD99
:102B500001A91B480068FFF740FD0520082301AAD2
:102B6000022100905020FFF706FD0A20082315A23D
:102B7000032100900020FFF7FEFC01A91348006824
:102B8000FFF72BFD0A20082301AA03210090502003
:102B9000FFF7F1FC1FBD0000636F64653A000000A1
:102BA000380000203C00002053657450756C73653C
:102BB0003A000000440000207470776D3A00000075
:102BC000680000204144433A000000003400002027
:102BD000704710B5431C02E010F8011B71B181076A
:102BE000FAD14FF0013202C88C1A8C4314EAC21198
:102BF000F9D0C01A0A0603D0C01E10BDC01A10BDFD
:102C00000A0401D0801E10BD0902FCD0401E10BD78
:102C10007047704770477047754600F02BF8AE4616
:102C200005006946534620F00700854618B020B5D8
:102C3000FDF7F6FBBDE820404FF000064FF000071F
:102C40004FF000084FF0000B21F00701AC46ACE854
:102C5000C009ACE8C009ACE8C009ACE8C0098D46C1
:102C6000704710B50446AFF300802046BDE8104021
:102C7000FDF7A5BA004870470002002090EA010F56
:102C800048BF81F0004100F16281421A3CBF801AC6
:102C900089184FEAD0524FF07F4C1CEA410FA2EB4B
:102CA000D15318BF9CEA026F00F03B804FF0004CFC
:102CB0004CEA00204CEA012121FA03FC10EB0C0C39
:102CC0001ED202F1FF325FEA1C2040EBC25038BF37
:102CD00070471CF07F0F4FEA400C18BFBCF17F4FCC
:102CE00038BF7047C3F12003994008BF20F00100AE
:102CF000BCF17F4F38BF7047A0F1C04000F01BB956
:102D00004FEA3C00000A40EBC25028BF1CF0FF0F06
:102D10004FEA400CE6D018BFBCF17F4F38BF704778
:102D2000EAE79CEA026F05D010EA5C0F08BF00F0EA
:102D30000040704710B500F0B8F800BF64FBBE3E1D
:102D400041000B0ED3F19E0208D950F400034FEA64
:102D5000032323FA02F048BF4042704710B500F049
:102D6000A4F800BF49922480002070476FF0004211
:102D700082EA20007047000010F0004148BF404246
:102D8000B0FA80F310FA03F2C3F19D030BD051EABD
:102D9000C35101EB1220530638BF704700F1010008
:102DA00008BF20F0010070474FF47F0C1CEAD012DE
:102DB0001EBF1CEAD11392EA0C0F93EA0C0F00F02D
:102DC000478090EA010F48BF42F480724FF0004CF8
:102DD0004CEA00204CEA012102EB0302A0FB0113A4
:102DE000A2F50002002918BF43F001035B0028BFD1
:102DF0004FEA330342EB22425FEA132C4CEBC25002
:102E00002EBFBCEB436FB2F57C0F70474FEA036CEB
:102E1000BCF1004F08BF20F00100B2F57C0F38BFB5
:102E200070470BD582F0FF0212F5803FC8BF704794
:102E300000F1C040D8BF00F00040704700F5000C22
:102E40005FEA4C0C48BF7047B0F1C04000F073B867
:102E500090EA010F0CEAD11348BF42F48072624538
:102E600038BF634504D280EA010000F0004070479B
:102E700010B500F01AF800BF8900013E00F007B855
:102E800000F009B85FEA410C5FEA1C6C08D080EAE8
:102E9000010000F050B85FEA400C5FEA1C6CF6D10C
:102EA0004FF00040A0F5800070470EF1020E2EF0AA
:102EB000030E5EF8044B244204D44FEA4102B2F1FF
:102EC0007F4F11D84FEA4003B3F17F4F0CD80ED19A
:102ED0004FEAD07CB2F17F4F0CEB4C0C0CF1020CA2
:102EE00008BF4CEBD17C04E04FF0080C01E04FEA46
:102EF000D17C0CEB4C0324FA03F404F00704B4F186
:102F0000040C06D20EEB840CBDE810404CF0010C12
:102F10006047DFE80CF0070802024FF00040A0F520
:102F2000800010BD0846420018BFD2F1807288BFF1
:102F300000F0004010BDFF2141EAD050C0057047AD
:102F400090EA010F48BF81F000413FF59EAE421A62
:102F500004D882F00042A0EB020011444FEAD052A4
:102F60004FF07F4C1CEA410FA2EBD15318BF9CEAF3
:102F7000026F4AD04FF0004C4CEA00204CEA01218D
:102F800021FA03FCB0EB0C0C0FD412F0FE0F36D07C
:102F90005FEA4C001DD5001240EBC25038BF7047AD
:102FA0001CF03F0F18BF70470BE0A2F101025FEA6F
:102FB0001C2040EBC25038BF70471CF07F0F18BF79
:102FC0007047C3F12003994014BF401E20F0010058
:102FD000704780084FEA122308BF7047B0FA80FCA0
:102FE000A2EB0C02CCF1280C60FA0CF093EA122F41
:102FF00004BF00EBC25070474FEAC3707047130A1A
:103000005FEADC1008BF7047F6E79CEA026F04D065
:1030100010EA5C0F08BF0020704710B5FFF745FFAE
:1030200040DFF63E81F000407047000000000000E5
:103030000000002F000000000700070000147F14AC
:103040007F1400242A7F2A120062640813230036AA
:103050004955225000000503000000001C224100D9
:10306000000041221C000014083E08140008083E1D
:103070000808000000A06000000808080808000018
:1030800060600000002010080402003E5149453EE7
:103090000000427F40000042615149460021414505
:1030A0004B31001814127F10002745454539003C6C
:1030B0004A4949300001710905030036494949363A
:1030C00000064949291E0000363600000000563629
:1030D000000000081422410000141414141400000D
:1030E0004122140800020151090600324959513E9B
:1030F000007C1211127C007F49494936003E414153
:103100004122007F4141221C007F49494941007F03
:1031100009090901003E4149497A007F0808087FF2
:103120000000417F4100002040413F01007F081422
:103130002241007F40404040007F020C027F007F20
:103140000408107F003E4141413E007F0909090605
:10315000003E4151215E007F091929460046494938
:1031600049310001017F0101003F4040403F001F05
:103170002040201F003F4038403F00631408146384
:1031800000070870080700615149454300007F416E
:10319000410000552A552A55000041417F00000496
:1031A00002010204004040404040000001020400CF
:1031B000002054545478007F484444380038444434
:1031C000442000384444487F0038545454180008C0
:1031D0007E0901020018A4A4A47C007F08040478DE
:1031E0000000447D4000004080847D00007F102866
:1031F00044000000417F4000007C04180478007CFB
:103200000804047800384444443800FC242424187A
:103210000018242418FC007C0804040800485454B6
:10322000542000043F444020003C4040207C001CCF
:103230002040201C003C4030403C004428102844E2
:10324000001CA0A0A07C004464544C44141414142A
:103250001414000000000000000000000000000046
:103260000000000000F80000000000000033300003
:10327000000000100C06100C06000000000000000A
:10328000000040C07840C0784000043F04043F0480
:103290000400007088FC08300000001820FF211E88
:1032A0000000F008F000E018000000211C031E21BF
:1032B0001E0000F00888700000001E21232419273A
:1032C000211010160E000000000000000000000099
:1032D0000000000000E018040200000000071820B1
:1032E000400000020418E000000000402018070021
:1032F0000000404080F0804040000202010F0102C7
:103300000200000000F0000000000101011F0101A7
:103310000100000000000000000080B0700000000C
:103320000000000000000000000000010101010198
:10333000010100000000000000000030300000002B
:103340000000000000008060180400601806010002
:10335000000000E010080810E000000F102020100E
:103360000F00001010F8000000000020203F202077
:10337000000000700808088870000030282422210E
:1033800030000030088888483000001820202011C4
:103390000E000000C02010F8000000070424243FA5
:1033A000240000F80888880808000019212020114E
:1033B0000E0000E0108888180000000F1120201176
:1033C0000E0000380808C83808000000003F000060
:1033D00000000070880808887000001C222121224B
:1033E0001C0000E010080810E0000000312222114B
:1033F0000F00000000C0C0000000000000303000DE
:10340000000000000080000000000000806000005C
:103410000000000080402010080000010204081095
:1034200020004040404040404000040404040404A4
:103430000400000810204080000000201008040252
:103440000100007048080808F00000000030360154
:103450000000C030C828E810E00007182724231413
:103460000B000000C038E0000000203C23020227CF
:10347000382008F8888888700000203F202020111C
:103480000E00C03008080808380007182020201057
:10349000080008F808080810E000203F202020104D
:1034A0000F0008F88888E8081000203F202023201B
:1034B000180008F88888E8081000203F2000030062
:1034C0000000C03008080838000007182020221E1D
:1034D000020008F808000008F808203F2101012137
:1034E0003F20000808F8080800000020203F2020A6
:1034F000000000000808F8080800C08080807F00F5
:10350000000008F888C028180800203F200126384D
:10351000200008F8080000000000203F20202020A4
:10352000300008F8F800F8F80800203F003F003F9E
:10353000200008F830C00008F808203F20000718D5
:103540003F00E01008080810E0000F1020202010B5
:103550000F0008F808080808F000203F21010101C9
:103560000000E01008080810E0000F18242438506C
:103570004F0008F8888888887000203F2000030CDE
:1035800030200070880808083800003820212122E7
:103590001C00180808F8080818000000203F200048
:1035A000000008F808000008F808001F202020206C
:1035B0001F000878880000C83808000007380E018E
:1035C0000000F80800F80008F800033C0700073C7A
:1035D0000300081868808068180820302C03032C2A
:1035E00030200838C800C83808000000203F2000FC
:1035F000000010080808C8380800203826212020BC
:103600001800000000FE020202000000007F40409F
:103610004000000C30C0000000000000000106382F
:10362000C00000020202FE000000004040407F0097
:10363000000000000402020204000000000000007C
:10364000000000000000000000008080808080807A
:103650008080000202040000000000000000000062
:1036600000000000808080800000001924222222B7
:103670003F2008F8008080000000003F112020114A
:103680000E000000008080800000000E112020202D
:103690001100000000808088F800000E112020102A
:1036A0003F200000808080800000001F2222222214
:1036B0001300008080F0888888180020203F202098
:1036C00000000000808080808000006B94949493C0
:1036D000600008F8008080800000203F210000206A
:1036E0003F2000809898000000000020203F20200C
:1036F0000000000000809898000000C08080807F5B
:10370000000008F8000080808000203F24022D3057
:103710002000000808F8000000000020203F2020C2
:1037200000008080808080808000203F20003F203B
:10373000003F8080008080800000203F210000202A
:103740003F200000808080800000001F202020207B
:103750001F00808000808000000080FFA1202011D9
:103760000E000000008080808000000E112020A04C
:10377000FF80808080008080800020203F2120000A
:1037800001000000808080808000003324242424F5
:103790001900008080E0808000000000001F2020D1
:1037A00000008080000000808000001F202020108A
:1037B0003F20808080000080808000010E3008065D
:1037C000010080800080008080800F300C030C306E
:1037D0000F0000808000808080000020312E0E319C
:1037E0002000808080000080808080818E7018069C
:1037F000010000808080808080000021302C222108
:10380000300000000000807C020200000000003F49
:10381000404000000000FF00000000000000FF002A
:1038200000000002027C800000000040403F0000D9
:103830000000000601010202040400000000000074
:103840000000000064380008000000207000000044
:103850006C010008D438000870000020F007000058
:103860008801000800A24A040000000000000000D7
:103870000102030406070809000000000102030416
:1038800001020304060708090204060800000000FC
:103890000000000000000000000000000000000028
:1038A00000000000000000003200000000000000E6
:1038B0000000000000000000000000000000A04127
:1038C000000096430000000000000000000000001F
:0438D00000000000F4
:0400000508000131BD
:00000001FF
