:020000040800F2
:10000000600800202D0400083102000833020008B7
:10001000370200083B0200083F0200080000000011
:100020000000000000000000000000004302000883
:1000300045020008000000004702000849020008CD
:100040004704000847040008470400084704000864
:100050004704000847040008470400084704000854
:100060004704000847040008470400084704000844
:100070004704000847040008470400084704000834
:100080004704000847040008470400084704000824
:100090004704000847040008470400084704000814
:1000A00047040008D9300008470400084704000846
:1000B00047040008470400084704000847040008F4
:1000C00047040008470400084704000847040008E4
:1000D000470400089B260008B72E000847040008C4
:1000E00047040008470400084704000847040008C4
:1000F00047040008470400084704000847040008B4
:1001000047040008470400084704000847040008A3
:100110004704000847040008470400084704000893
:100120004704000847040008470400084704000883
:1001300000F002F800F03AF80AA090E8000C8244BF
:100140008344AAF10107DA4501D100F02FF8AFF29C
:10015000090EBAE80F0013F0010F18BFFB1A43F0A5
:1001600001031847243F0000443F0000103A24BF19
:1001700078C878C1FAD8520724BF30C830C144BF0C
:1001800004680C607047000000230024002500264E
:10019000103A28BF78C1FBD8520728BF30C148BFEA
:1001A0000B6070471FB51FBD10B510BD03F056F9A9
:1001B0001146FFF7F7FF00F009F803F074F903B4F4
:1001C000FFF7F2FF03BC02F00DFA000002F0AAFAFA
:1001D00002F0E8FA02F09CF94FF4E13002F01CFE64
:1001E00002F054FC02F055FB02F00CFB632141F6D7
:1001F0001F4002F08BFD41F61F41632002F0DCFD41
:1002000002F0DAFE02F09EFF0FE003F083F802F046
:10021000B2FA02F0D0FF4FF47A71044801F02EFFD9
:100220004FF47A71014801F02BFFEEE7000800401F
:10023000704700BFFEE700BFFEE700BFFEE700BF5C
:10024000FEE7704770477047704700000CB500200C
:10025000019000906C48006840F480306A49086062
:1002600000BF6948006800F4003000900198401C0D
:100270000190009818B90198B0F5A06FF1D16248CB
:10028000006800F4003010B10120009001E000206F
:1002900000900098012843D15C48006840F01000AD
:1002A0005A4908600846006820F0030008600846C4
:1002B000006840F0020008605348406852494860B6
:1002C0000846406848600846406840F480604860DE
:1002D0000846406820F47C1048600846406840F4B6
:1002E000E81048600846006840F08070086000BF71
:1002F0004548006800F000700028F9D04248406886
:1003000020F00300404948600846406840F0020081
:10031000486000BF3C48406800F00C000828F9D154
:100320000CBD10B5FFF792FF10BD10B53648006840
:1003300040F00100344908600846406834490840EC
:100340003149486008460068324908402E49086033
:100350000846006820F4802008600846406820F4C1
:10036000FE0048604FF41F008860FFF7DAFF4FF08F
:1003700000602949086010BD10B50021002000224E
:10038000214B5B6803F00C0121B1042906D0082938
:1003900028D107E0214B224C236027E01F4B204C43
:1003A000236023E0184B5B6803F47010164B5B6806
:1003B00003F48032022303EB904022B9194B4343EC
:1003C000174C23600DE0104B5B6803F4003323B13E
:1003D000144B4343124C236003E0104B4343104C37
:1003E000236003E00D4B0E4C236000BF00BF064BA3
:1003F0005B68C3F303130C4CE15C094B1B68CB40F7
:10040000074C236010BD0000001002400020024095
:100410000000FFF8FFFFF6FE08ED00E000127A0092
:100420000000002000093D0004000020094880472A
:1004300009480047FEE7FEE7FEE7FEE7FEE7FEE7C6
:10044000FEE7FEE7FEE7FEE704480549054A064BDE
:10045000704700002B0300083101000860020020F3
:10046000600800206004002060040020314901433E
:10047000314A1160704770B5002100230F22C47803
:1004800004B32D4C246804F4E064C4F5E064210A4C
:10049000C1F10403CA40447804FA03F1847814409B
:1004A00021430901254C0678A155047804F01F0565
:1004B0000124AC4005786D11AD0005F1E025C5F8CB
:1004C000004109E0047804F01F050124AC401C4DF4
:1004D0000678761145F8264070BD1A4A0A40024354
:1004E000154B1B1F1A60704739B1134A121D126851
:1004F0000243114B1B1D1A6006E00F4A121D1268C1
:1005000082430D4B1B1D1A607047042808D14FF021
:10051000E021096941F004014FF0E022116107E098
:100520004FF0E021096921F004014FF0E022116150
:10053000704700000000FA050CED00E000E400E068
:1005400080E100E080FFFF1F10B50446FA488442B6
:1005500008D10121401500F07FFE0021601500F058
:100560007BFE17E0F548844208D10121001500F018
:1005700073FE0021201500F06FFE0BE0F04884426E
:1005800008D10121C80300F067FE00214FF40040AC
:1005900000F062FE10BD30B5024600200023506816
:1005A000E84C20400D790C6844EA05242043506053
:1005B0009068E54C2040D1E902542C434D7944EA3F
:1005C000450420439060D06A20F470000C7C641EC7
:1005D000E4B2234340EA0350D06230BD0021016001
:1005E000017141718160C16001210174704721B1C5
:1005F000826842F00102826003E0826822F0010218
:100600008260704721B1826842F48072826003E0A8
:10061000826822F480728260704710B50023CBB2EA
:100620001AB144681C43446002E044689C4344603F
:1006300010BD816841F008018160704701460020CB
:100640008A6802F008020AB1012000E00020704729
:10065000816841F0040181607047014600208A688A
:1006600002F004020AB1012000E00020704721B12D
:10067000826842F4A002826003E0826822F4A00251
:1006800082607047014600208A6802F480020AB145
:10069000012000E00020704710B50A460021002329
:1006A000416821F46041531E41EA4331416010BD6D
:1006B00021B1426842F40062426003E0426822F4E1
:1006C000006242607047F0B504460D4600200021EC
:1006D000092D11DDE068A5F10A0606EB460707269D
:1006E00006FA07F18843A5F10A0606EB460603FA67
:1006F00006F10843E0600CE0206905EB450707269A
:1007000006FA07F1884305EB450603FA06F10843AC
:100710002061072A0FDA606B561E06EB86071F263C
:1007200006FA07F18843561E06EB860605FA06F11F
:100730000843606322E00D2A0FDA206BD61F06EB18
:1007400086071F2606FA07F18843D61F06EB8606A2
:1007500005FA06F10843206310E0E06AA2F10D06F5
:1007600006EB86071F2606FA07F18843A2F10D065D
:1007700006EB860605FA06F10843E062F0BD21B1FA
:10078000826842F48012826003E0826822F4801260
:10079000826070470146C86C80B2704766484C3032
:1007A0000068704721B1426842F48062426003E011
:1007B000426822F480624260704721B1426842F48C
:1007C0008052426003E0426822F4805242607047E7
:1007D0000A460021816821F4E0411143816070479D
:1007E00021B1826842F40042826003E0826822F410
:1007F00000428260704721B1826842F40212826036
:1008000003E0826822F402128260704701460020F1
:100810008A6802F400120AB1012000E0002070474B
:10082000F0B504461546002000220026092911DDF6
:10083000E068A1F10A0707EB470C072707FA0CF25B
:100840009043A1F10A0707EB470703FA07F21043A9
:10085000E0600CE0206901EB410C072707FA0CF27D
:10086000904301EB410703FA07F210432061A06BAC
:10087000C0F30156EF1C06F1010CA7EB0C0707EBC8
:10088000870C1F2707FA0CF29043EF1C06F1010CAE
:10089000A7EB0C0707EB870701FA07F21043A063E9
:1008A000F0BD10B50A4600210023816B21F44011F0
:1008B000531E41EA0351816310BD08B50023009324
:1008C0000090009B0B440093009B1A6008BD08B584
:1008D000024600200090009201F12800009B18447D
:1008E00000900098006880B208BD0A460021416867
:1008F000164B194011434160704741628262704754
:100900000A460021416821F01F01114341607047F0
:1009100040B109490831096841F40001064A08322A
:10092000116007E004490831096821F40001024A16
:100930000832116070470000002401400028014087
:10094000003C0140FFFEF0FFFDF7F1FFFFFD3FFF20
:100950000246002013680B400BB1012000E000208C
:100960007047CA430260704770B5024600200023FA
:1009700000240B125568CEB205EA060415681D4026
:1009800015B10CB1012000E0002070BD00220A1258
:10099000D34303607047000001684FF6FE721140B8
:1009A00001600021016041608160C1608D49884221
:1009B00008D18C490839496841F00F01894A083A41
:1009C00051608AE087491431884208D18549083945
:1009D000496841F0F001834A083A51607DE081495D
:1009E0002831884208D17F490839496841F470614B
:1009F0007C4A083A516070E07A493C31884208D11B
:100A000078490839496841F47041764A083A51609A
:100A100063E074495031884208D172490839496805
:100A200041F470216F4A083A516056E06D496431D3
:100A3000884208D16B490839496841F47001694A14
:100A4000083A516049E067497831884208D16549E0
:100A50000839496841F07061624A083A51603CE0E7
:100A60006149884206D1011F096841F00F01021F48
:100A7000116032E05C491431884208D15A49091F9B
:100A8000096841F0F001584A121F116025E05649EB
:100A90002831884208D15449091F096841F470611E
:100AA000514A121F116018E04F493C31884208D169
:100AB0004D49091F096841F470414B4A121F1160EA
:100AC0000BE049495031884207D14749091F09685D
:100AD00041F47021444A121F1160704710B5002282
:100AE000026847F6F0739A430C6A8B6823430C69DB
:100AF00023434C6923438C692343CC6923434C6AC9
:100B000023438C6A23431A430260CB6843600B681B
:100B100083604B68C36010BD00210160416081604B
:100B2000C160016141618161C161016241628162B3
:100B3000704721B1026842F00102026004E00268DD
:100B40004FF6FE731A40026070471AB103680B43F8
:100B5000036002E003688B430360704741607047A5
:100B60000146486880B2704701460020002201F02B
:100B700080531BB11C4B083B1A6802E0194B083B21
:100B80001A6802EA01030BB1012000E0002070475F
:100B900000F0805119B11449091F086002E01149A1
:100BA00008394860704701460020002201F0805358
:100BB0001BB10D4B083B1A6802E00A4B083B1A6850
:100BC00002EA01030BB1012000E00020704700F0B1
:100BD000805119B10449091F086002E00149083930
:100BE00048607047080002400804024010B50446FF
:100BF000CC48844208D10121042000F02DFB0021C3
:100C0000042000F029FB46E0C748844208D10121B6
:100C1000082000F021FB0021082000F01DFB3AE035
:100C2000C248844208D10121102000F015FB0021A8
:100C3000102000F011FB2EE0BD48844208D10121B4
:100C4000202000F009FB0021202000F005FB22E01D
:100C5000B848844208D10121402000F0FDFA00216B
:100C6000402000F0F9FA16E0B348844208D101218F
:100C7000802000F0F1FA0021802000F0EDFA0AE077
:100C8000AE48844207D10121801500F0E5FA002129
:100C9000A01500F0E1FA10BD10B50121084600F0E2
:100CA000DBFA0021012000F0D7FA10BD2DE9F04158
:100CB000024600250026002000230024002791F88A
:100CC00003C00CF00F0591F803C00CF0100CBCF140
:100CD000000F03D091F802C04CEA050591F800C05E
:100CE000BCF1000F31D0146800202BE04FF0010C54
:100CF0000CFA00F3B1F800C00CEA03069E4220D1C2
:100D000083004FF00F0C0CFA03F7BC4305FA03FC09
:100D10004CEA040491F803C0BCF1280F06D14FF04F
:100D2000010C0CFA00FCC2F814C00AE091F803C0F0
:100D3000BCF1480F05D14FF0010C0CFA00FCC2F8D1
:100D400010C0401C0828D1D31460B1F800C0BCF119
:100D5000FF0F34DD546800202EE000F1080C4FF046
:100D6000010808FA0CF3B1F800C00CEA03069E4231
:100D700021D183004FF00F0C0CFA03F7BC4305FAA6
:100D800003FC4CEA040491F803C0BCF1280F05D120
:100D900000F1080C08FA0CF8C2F8148091F803C0AE
:100DA000BCF1480F07D100F1080C4FF0010808FA18
:100DB0000CF8C2F81080401C0828CED35460BDE85F
:100DC000F0814FF6FF710180022181700421C17012
:100DD00070470246002093680B400BB1012000E0F1
:100DE000002070470146886880B2704702460020A4
:100DF000D3680B400BB1012000E000207047014692
:100E0000C86880B2704701617047416170470AB19C
:100E1000016100E041617047C16070474FF480326A
:100E20000A438261816182618269826970470246F8
:100E30000020434B18684FF68073184040EA0210B8
:100E400008433F4B186070473E49C8617047F0B592
:100E50000A46002300240021002500F00046B6F1D8
:100E6000004F02D1364EF16901E0354E7168C0F392
:100E7000034583B200F44016B6F5401F08D121F0B7
:100E800070612F4E766826F070662D4F7E6012E0FE
:100E900000F48016B6F5801F06D1032606FA05F485
:100EA000A14341F0706106E0460D360103FA06F6F3
:100EB000B14341F0706122B1460D360103FA06F6E6
:100EC000314300F00046B6F1004F02D11C4EF161F3
:100ED00001E01B4E7160F0BD30B500228B071C0F86
:100EE0000F2303FA04F2164B08338C1053F8243006
:100EF0009343134C08348D1044F8253023468C104E
:100F000053F824308C07240F00FA04F423430C4CCC
:100F100008348D1044F8253030BD0A49DC310860B2
:100F20007047000000080140000C01400010014023
:100F30000014014000180140001C01400020014045
:100F40000000014000002042DF48006840F001003E
:100F5000DD49086008464068DC490840DA494860D5
:100F600008460068DA490840D74908600846006822
:100F700020F4802008600846406820F4FE004860A5
:100F80004FF41F0088607047CF49096821F4803111
:100F9000CD4A11601146096821F480211160B0F535
:100FA000803F03D0B0F5802F0ED106E0C649096816
:100FB00041F48031C44A116007E0C349096841F433
:100FC000A021C14A116000E000BF00BF704710B50A
:100FD00001460022002300204A11012A02D1BA4C06
:100FE000236806E0022A02D1B74C236A01E0B64C1E
:100FF000636A01F01F02012494401C400CB10120DF
:1010000000E0002010BD38B500200090002400252D
:1010100000BF3120FFF7DBFF05460098401C009021
:101020000098B0F5A06F01D0002DF2D03120FFF76D
:10103000CEFF08B1012400E00024204638BD01465F
:101040000020A14A106820F0F80040EAC1001060BA
:101050007047A04908607047024600209A4B5868C4
:1010600020F47C1042EA01031843974B5860704704
:1010700098490866704701460020934A506820F05E
:1010800003000843506070478F48406800F00C0030
:101090007047014600208C4A506820F0F000084359
:1010A0005060704701460020874A506820F4E06095
:1010B00008435060704701460020834A506820F47E
:1010C000605040EAC1005060704729B17E4A527AB0
:1010D00002437D4B5A7204E07B4A527A82437A4B38
:1010E0005A7270477B49D83108607047014600202A
:1010F000754A506820F44040084350607047002112
:10110000714A20321170704A82F82010012802D0F2
:1011100004280AD104E001216B4A2032117005E055
:101120000521694A2032117000E000BF00BF7047FE
:101130006949086070476449096A0143624A11625B
:101140007047654944390860704730B50021002276
:10115000002400235C4D6D6805F00C0121B10429C9
:1011600005D0082923D105E05C4D056022E05B4DE8
:1011700005601FE0544D6D6805F47012524D6D68A6
:1011800005F48034022505EB92421CB9544D5543B9
:1011900005600BE04C4D6D6805F400351DB1504DF8
:1011A0005543056002E04D4D5543056002E04B4D4F
:1011B000056000BF00BF444D6D6805F0F0010909EE
:1011C000484D6B5C0568DD4045603F4D6D6805F43A
:1011D000E061090A434D6B5C4568DD4085603A4D2E
:1011E0006D6805F46051C90A3E4D6B5C4568DD4091
:1011F000C560354D6D6805F44041890B3A4D6B5C17
:10120000C568B5FBF3F5056130BD29B12E4A5269B9
:1012100002432D4B5A6104E02B4A526982432A4B08
:101220005A61704729B1284A92690243264B9A6154
:1012300004E0254A92698243234B9A61704729B1A1
:10124000214AD2690243204BDA6104E01E4AD26986
:1012500082431D4BDA61704729B11B4AD2680243B1
:10126000194BDA6004E0184AD2688243164BDA6000
:10127000704729B1144A12690243134B1A6104E002
:10128000114A12698243104B1A6170471249403962
:10129000086070470F49C86470470B49C8717047B0
:1012A0000948406A40F0807007494862704701462B
:1012B0000020054A92680A400AB1012000E000209F
:1012C0007047014988727047001002400000FFF823
:1012D000FFFFF6FE000042428004424200127A0004
:1012E00000093D00140000202400002010B5044631
:1012F000FE48844208D10121C014FFF7ADFF002150
:10130000E014FFF7A9FFC4E0B4F1804F08D1012138
:101310000846FFF7AEFF00210120FFF7AAFFB8E063
:10132000F348844208D101210220FFF7A2FF0021E7
:101330000220FFF79EFFACE0EE48844208D1012175
:101340000420FFF796FF00210420FFF792FFA0E0A2
:10135000E948844208D101210820FFF78AFF0021D3
:101360000820FFF786FF94E0E448844208D1012179
:101370001020FFF77EFF00211020FFF77AFF88E0A2
:10138000DF48844208D101212020FFF772FF0021AD
:101390002020FFF76EFF7CE0DA48844208D101216B
:1013A0004014FFF759FF00216014FFF755FF70E06C
:1013B000D548844209D10121C804FFF74DFF00211F
:1013C0004FF40020FFF748FF63E0D048844209D182
:1013D00001210805FFF740FF00214FF48010FFF7BF
:1013E0003BFF56E0CA48844209D101214805FFF776
:1013F00033FF00214FF40010FFF72EFF49E0C548EE
:10140000844208D101214020FFF733FF0021402012
:10141000FFF72FFF3DE0C048844208D10121802022
:10142000FFF727FF00218020FFF723FF31E0BB48B3
:10143000844208D101218015FFF71BFF0021A01570
:10144000FFF717FF25E0B648844209D101210804BF
:10145000FFF702FF00214FF48030FFF7FDFE18E098
:10146000B048844209D101214804FFF7F5FE00216C
:101470004FF40030FFF7F0FE0BE0AB48844208D198
:1014800001218804FFF7E8FE00214FF48020FFF7D8
:10149000E3FE10BD00220288944B98420ED0994B77
:1014A00098420BD0B0F1804F08D0914B984205D0B4
:1014B000904B984202D0904B984204D14FF68F73D4
:1014C0001A404B881A438D4B984207D08C4B984258
:1014D00004D04FF6FF431A40CB881A4302808B8812
:1014E00083850B880385814B98420BD0854B9842AE
:1014F00008D08B4B984205D08A4B984202D08A4B39
:10150000984201D10B7A038601238382704770B51C
:10151000002400220023058C4FF6FE76354005841A
:10152000028C8388048B4FF68F752C40B51E2C409F
:101530000D882C43751E2A400D892A434D882A4365
:101540006A4DA8420BD06F4DA84208D0744DA842F6
:1015500005D0744DA84202D0734DA84213D14FF666
:10156000F7752A404D892A434FF6FB752A408D882E
:101570002A434FF6FF652B404FF6FF552B408D89D0
:101580002B43CD892B4383800483CD8885860284B9
:1015900070BD70B5002400220023058C4FF6EF7655
:1015A00035400584028C8388048B48F6FF752C40F7
:1015B0004FF6FF452C400D884FF6FF7606EA0525CD
:1015C0002C434FF6DF752A400D8906EA05152A439C
:1015D0004D8806EA05152A43444DA84202D0494DDC
:1015E000A8421DD14FF67F752A404D894FF6FF76F0
:1015F00006EA05152A434FF6BF752A408D8806EA8C
:1016000005152A434FF6FF352B404FF2FF752B404F
:101610008D8906EA85052B43CD8906EA85052B438E
:1016200083800483CD880587028470BD70B5002453
:1016300000220023058C4FF6FF6635400584028C9E
:101640008388848B4FF68F752C404FF6FC752C40A9
:101650000D882C434FF6FF552A400D894FF6FF7633
:1016600006EA05252A434D8806EA05252A431F4D2B
:10167000A84202D0234DA8421DD14FF2FF752A4047
:101680004D894FF6FF7606EA05252A434FF6FF35CA
:101690002A408D8806EA05252A434EF6FF752B4021
:1016A0004DF6FF752B408D8906EA05152B43CD8934
:1016B00006EA05152B4383808483CD8885870284C1
:1016C00070BD70B5002200230024058C4EF6FF7615
:1016D00035400584038C8488828B48F6FF752A4048
:1016E0004FF6FF452A400D8820E00000002C014005
:1016F0000004004000080040000C004000100040C2
:101700000014004000340140004C014000500140F2
:101710000054014000180040001C00400020004020
:101720000040014000440140004801404FF6FF7670
:1017300006EA05252A434DF6FF752B400D8906EA7A
:1017400005352B434D8806EA05352B43FA4DA84253
:1017500002D0FA4DA84208D14BF6FF752C408D8976
:101760004FF6FF7606EA85152C4384808283CD8868
:10177000A0F84050038470BD828B4FF2FF331A40B3
:101780008283828B4FF6FF7303EA01231A4382831D
:101790007047F0B50C461546002200210026078C44
:1017A0004EF6FF7C07EA0C070784828B018C4FF60C
:1017B000FF7707EA043640F6FF473A404FF6FF77D7
:1017C00007EA05273A434FF6FF7707EA03373A431C
:1017D000D94FB8420ED0D94FB8420BD0B0F1804F9C
:1017E00008D0D74FB84205D0D64FB84202D0D64F16
:1017F000B84206D14DF6FF77394046F48057394359
:1018000005E047F6FF57394044F480573943828357
:101810000184F0BD828B4FF6F3731A408283828B72
:101820000A4382837047F0B50C461546002200211A
:101830000026078C4FF6FF6C07EA0C070784828BA3
:10184000018C4FF6FF7707EA04264FF60C773A40F3
:101850004FF6FF7707EA03172F433A43B64FB842D4
:101860000ED0B64FB8420BD0B0F1804F08D0B44F75
:10187000B84205D0B34FB84202D0B34FB84206D1F8
:101880004FF6FF57394046F48077394305E04FF271
:10189000FF57394044F48077394382830184F0BD97
:1018A000028B4FF2FF331A400283028B4FF6FF7315
:1018B00003EA01231A4302837047F0B50C4615462C
:1018C000002200210026078C4FF6EF7C07EA0C0768
:1018D0000784028B018C4FF6FF7707EA041640F667
:1018E000FF473A404FF6FF7707EA03373A434FF690
:1018F000FF7707EA05273A438F4FB8420ED08F4F44
:10190000B8420BD0B0F1804F08D08D4FB84205D00F
:101910008C4FB84202D08C4FB84206D14FF6DF77D9
:10192000394046F01007394305E04FF65F773940FC
:1019300044F01007394302830184F0BD028B4FF657
:10194000F3731A400283028B0A4302837047F0B597
:101950000C46154600220021068C4FF6FE773E40CD
:101960000684028B018C4FF60C7632407E1C06EA10
:1019700003162E433243704EB0420ED06F4EB0422B
:101980000BD0B0F1804F08D06D4EB04205D06D4EF7
:10199000B04202D06C4EB04206D14FF6FD763140D7
:1019A00044F00106314305E04FF6F576314044F04E
:1019B0000106314302830184F0BD70B505460C4633
:1019C0005D4885420ED05D4885420BD0B5F1804F11
:1019D00008D05B48854205D05A48854202D05A4813
:1019E000854200D100E000BF208850B92389A28839
:1019F00061882846FFF7ABFFE1882846FFF79EFF86
:101A000025E0208804280AD12389A28861882846F5
:101A1000FFF753FFE1882846FFF742FF17E02088D1
:101A200008280AD12389A28861882846FFF7FBFE8F
:101A3000E1882846FFF7EEFE09E02389A288618845
:101A40002846FFF7A6FEE1882846FFF795FE70BD01
:101A50002DE9F04105460C4600260127608808B9AB
:101A6000022600E00026A088012801D1022700E01C
:101A700001272088A0B92389A28861882846FFF71A
:101A800066FFE1882846FFF759FF23893A46314629
:101A90002846FFF712FFE1882846FFF701FF13E011
:101AA0002389A28861882846FFF707FFE188284636
:101AB000FFF7F6FE23893A4631462846FFF747FFEF
:101AC000E1882846FFF73AFFBDE8F0810A884B8895
:101AD0001A438B881A43CB881A430B891A434B89C4
:101AE0001A438B891A43A0F8442070474FF6FF71C0
:101AF000818000210180C1804180017270470021F6
:101B0000018041808180C180018141818181C181C9
:101B10007047002101804180012181800021C18026
:101B2000018170470021018041808180C180018155
:101B30004181818170470000002C01400034014048
:101B40000004004000080040000C004021B1028861
:101B500042F00102028004E002884FF6FE731A4050
:101B60000280704731B1B0F8442042F40042A0F83E
:101B7000442005E0B0F84420C2F30E02A0F844204F
:101B800070471AB183890B43838102E083898B43B9
:101B9000838170478182704741EA0203A0F8483090
:101BA00070471AB183890B43838102E083898B4399
:101BB0008381704701894FF6F872114001817047A7
:101BC0000A46002101894FF68F73194011430181A4
:101BD000704730B504460D4629462046FFF7F0FF12
:101BE000208940F00700208130BD2DE9F0410446F6
:101BF0000D4616461F46602D06D13B460122314652
:101C00002046FFF75AFE05E03B46012231462046BA
:101C1000FFF79DFE29462046FFF7D2FF208940F0BE
:101C200007002081BDE8F08130B50C460021018914
:101C3000C9B24FF6FF7505EA03251543254329432D
:101C4000018130BD2DE9F04105460E461746984604
:101C5000002443463A4631462846FFF7E5FF2C89E3
:101C60004FF6F870044044F007044FF68F700440BC
:101C700044F070042C81BDE8F081F0B504460D46B7
:101C800016461F463B46324629462046FFF7CCFF04
:101C9000208940F480402081F0BD01858282704718
:101CA0000A46002101884FF68F73194011430180C5
:101CB0007047F0B50C4615461E4600210022002351
:101CC0000189028B038C4FF6F877394021434FF698
:101CD000FC473A4040F201173A434FF6DD773B406C
:101CE0004FF6FF7707EA06172F433B430181028334
:101CF0000384F0BD0A460021018B4FF68F73194013
:101D00001143018370470A460021018B48F6FF7397
:101D100019404FF6FF7303EA02231943018370470A
:101D20000A460021818B4FF68F731940114381833E
:101D300070470A460021818B48F6FF7319404FF621
:101D4000FF7303EA022319438183704721B102889C
:101D500042F08002028004E002884FF67F731A404E
:101D60000280704721B1828842F00402828004E040
:101D700082884FF6FB731A408280704721B18288B7
:101D800042F00802828004E082884FF6F7731A401E
:101D90008280704721B1828842F00102828004E093
:101DA00082884FF6FE731A40828070470A460021EF
:101DB000018B4FF6F77319401143018370470A46B0
:101DC0000021018B4FF2FF7319404FF6FF7303EAB6
:101DD00002231943018370470A460021818B4FF685
:101DE000F77319401143818370470A460021818BA4
:101DF0004FF2FF7319404FF6FF7303EA02231943B2
:101E0000818370470A460021018B4FF6FB7319400E
:101E10001143018370470A460021018B4FF6FF33BF
:101E200019404FF6FF7303EA0223194301837047F9
:101E30000A460021818B4FF6FB73194011438183C1
:101E400070470A460021818B4FF6FF3319404FF649
:101E5000FF7303EA02231943818370470A46002176
:101E6000018B4FF67F7319401143018370470A4677
:101E70000021018BC1F30E014FF6FF7303EA022329
:101E80001943018370470A460021818B4FF67F7307
:101E900019401143818370470A460021818BC1F3A9
:101EA0000E014FF6FF7303EA022319438183704743
:101EB0000A460021018C4FF6FD731940114301843D
:101EC00070470A460021018C4FF6F7731940114301
:101ED000018470470A460021018C4FF6DF731940D8
:101EE0004FF6FF7303EA02131943018470470A4651
:101EF0000021018C4FF67F7319404FF6FF7303EA00
:101F000002131943018470470A460021018C4FF6E1
:101F1000FF5319404FF6FF7303EA0223194301846C
:101F200070470A460021018C4FF2FF7319404FF6AB
:101F3000FF7303EA02231943018470470A46002114
:101F4000018C4DF6FF7319404FF6FF7303EA02331D
:101F500019430184704730B5002301248C40A3B29B
:101F6000048C9C430484048C02FA01F5ADB22C432A
:101F7000048430BD30B5002304248C40A3B2048C0B
:101F80009C430484048C02FA01F5ADB22C43048412
:101F900030BD70B5034600200024184618300125D6
:101FA0008D40ACB21D8CA5431D8409B1082909D10F
:101FB00000EB6100056825F07005056005681543B4
:101FC00005600EE00D1FC5F34E052844056825F495
:101FD000E045056005684FF6FF7606EA02263543C0
:101FE000056070BD21B1028842F00202028004E067
:101FF00002884FF6FD731A400280704721B10288B3
:1020000042F00402028004E002884FF6FB731A409B
:102010000280704721B1828842F08002828004E011
:1020200082884FF67F731A408280704702884FF68D
:10203000F7731A40028002880A4302807047828840
:102040004FF68F731A40828082880A4382807047DD
:1020500002894FF6F8731A40028102890A4302810D
:10206000704702894FF67F731A40028102890A4342
:1020700002817047818470478185704781867047EF
:102080000187704781877047A0F840107047028829
:102090004FF6FF431A40028002880A4302807047CD
:1020A0000146888E70470146088F70470146888F29
:1020B00070470146B1F8400070470146888C704770
:1020C0000146088D704702460020138A0B400BB171
:1020D000012000E000207047CA430282704730B5FB
:1020E0000246002000230024158A05EA0103958991
:1020F00005EA010413B10CB1012000E0002030BD5D
:10210000CA4302827047000010B50446FB4884426F
:1021100009D101218803FFF79FF800214FF4804087
:10212000FFF79AF832E0F648844209D101214804C9
:10213000FFF79FF800214FF40030FFF79AF825E0F1
:10214000F048844209D101218804FFF792F8002168
:102150004FF48020FFF78DF818E0EB48844209D156
:102160000121C804FFF785F800214FF40020FFF794
:1021700080F80BE0E548844208D101210805FFF70B
:1021800078F800214FF48010FFF773F810BD2DE9A7
:10219000F04786B005460E460024A24600BFA14681
:1021A0000027B08900B100BF2F462C8A4CF6FF7083
:1021B0000440F08804432C82AC894EF6F3100440AE
:1021C000B08831890843718908430443AC81AC8AE3
:1021D0004FF6FF400440B0890443AC8201A8FEF7EB
:1021E000B4FFC648874202D1DDF810A001E0DDF857
:1021F0000CA0A88900F4004040B10AEBCA0000EB33
:102200000A1031684900B0FBF1F807E00AEBCA0098
:1022100000EB0A1031688900B0FBF1F86420B8FBCC
:10222000F0F004012009642101FB1089A88900F461
:10223000004040B1322000EBC900B0FBF1F000F0EB
:102240000700044308E0322000EB09106421B0FBD2
:10225000F1F000F00F0004432C8106B0BDE8F087D8
:102260004FF41651016000218180C18001810C2151
:10227000418100218181704710B502460020108AFB
:102280004FF2FF0318400B884C8823438C8823436C
:10229000CC8823431843108210BD00210180418067
:1022A0008180C180704721B1828942F400528281CD
:1022B00004E082894DF6FF731A4082817047F0B5C1
:1022C0000346002400260025002040F66A17B94284
:1022D00000D100BF1846C1F3421401F01F060127C8
:1022E00007FA06F5012C01D10C3004E0022C01D1D3
:1022F000103000E014301AB107682F43076002E085
:102300000768AF430760F0BD1AB1838A0B4383822D
:1023100002E0838A8B4383827047028A4FF6F07310
:102320001A400282028A0A430282704782894FF26F
:10233000FF731A40828182890A438281704721B1EA
:10234000828942F00202828104E082894FF6FD73A5
:102350001A4082817047028A4FF6DF731A40028268
:10236000028A0A430282704721B1028A42F4804203
:10237000028204E0028A4BF6FF731A400282704721
:10238000C1F308028280704701468888C0F30800C4
:102390007047818941F0010181817047028BD2B27F
:1023A0000283028B42EA012202837047028B02F40D
:1023B0007F420283028B0A430283704721B1828AE3
:1023C00042F02002828204E0828A4FF6DF731A40D4
:1023D0008282704721B1828A42F01002828204E038
:1023E000828A4FF6EF731A408282704721B1828A47
:1023F00042F00802828204E0828A4FF6F7731A40A4
:102400008282704721B1828942F40042828103E0D6
:102410008289C2F30E028281704721B1828A42F41E
:102420000062828204E0828A4FF2FF731A40828245
:102430007047828A4FF6FB731A408282828A0A436F
:102440008282704721B1828A42F00202828204E0D5
:10245000828A4FF6FD731A4082827047024600203E
:10246000B1F5007F00D100BF13880B400BB10120F4
:1024700000E00020704701F40072B2F5007F00D147
:1024800000BFCA430280704770B502460024002393
:102490000025002040F66A16B14200D100BFC1F30A
:1024A000421501F01F03012606FA03F3012D02D1A4
:1024B0009689334006E0022D02D1168A334001E0AE
:1024C000968A33400C12012606FA04F4168834402A
:1024D00013B10CB1012000E0002070BD10B5002246
:1024E000002340F66A14A14200D100BF0A12012461
:1024F0009440A3B2DC43048010BD000000380140CA
:102500000044004000480040004C004000500040A3
:1025100010B56FF00400FDF7F8FF2E4800682E4953
:10252000B0FBF1F02D4908700846007800EB40013F
:10253000C1EBC0104FF6FF7101EAC00028490880C6
:1025400010BD0146254A12784A434FF0E0235A61F4
:1025500000229A611A46126942F001021A6100BF14
:102560004FF0E022106900F001021AB100F480324D
:10257000002AF5D04FF0E022126922F001024FF05C
:10258000E0231A6100229A6170470146144A1288BA
:102590004A434FF0E0235A6100229A611A461269B9
:1025A00042F001021A6100BF4FF0E022106900F012
:1025B00001021AB100F48032002AF5D04FF0E02277
:1025C000126922F001024FF0E0231A6100229A61A1
:1025D000704700000000002000127A002800002050
:1025E0002A000020014600BF704700BF494A1288F8
:1025F00002F04002002AF9D0C2B2464B1B1D1A80DD
:10260000704710B586B00446012144F20400FEF77D
:1026100009FE4FF40070ADF8140003208DF8160089
:1026200018208DF8170005A93B48FEF73FFB4FF433
:102630008060ADF8140004208DF8170005A9364815
:10264000FEF734FB25208DF8000003208DF80100F3
:102650008DF8020001208DF803006846FDF70BFF9E
:1026600001940020ADF80800ADF80A00ADF80C00A8
:10267000ADF810000C20ADF80E0001A92548FFF7B9
:1026800086FD012240F225512248FFF718FE012164
:102690002048FFF708FE06B010BD10B540F22551E6
:1026A0001C48FFF7F1FE10B31A48FFF76DFEC4B2E5
:1026B0001A48008800F40040C8B91848008800F49F
:1026C000804060B10A2C03D000201449088020E02B
:1026D0001248008840F400401049088019E00D2C91
:1026E00006D10E48008840F480400C49088010E074
:1026F0000A480088C0F30D0009490C5407480088B7
:10270000401C0649088008460088C72801DD0020D3
:10271000088010BD00380140000801403000002052
:102720007000002008B501212420FEF77BFD102059
:102730008DF803000001ADF8000003208DF80200C1
:1027400069461648FEF7B2FA4FF480711348FEF757
:102750005AFB10208DF803000420ADF80000032080
:102760008DF8020069460E48FEF7A0FA04210C48D5
:10277000FEF749FB08BD10B54FF480710748FEF71E
:1027800044FB6420FFF701FF4FF480710348FEF71C
:102790003AFB6420FFF7F9FE10BD0000000801407D
:1027A0000014014008B501211348FEF750FB012138
:1027B0001420FEF737FD48208DF803002020ADF8E7
:1027C000000069460D48FEF771FA48208DF80300B5
:1027D0004FF40040ADF8000069460948FEF766FA7C
:1027E00028208DF803000120ADF800006946044858
:1027F000FEF75CFA08BD0000000230000010014046
:102800000008014000B587B001210420FEF70AFD51
:1028100001210846FEF706FD01210820FEF70FFD05
:1028200004208DF81B000320ADF818008DF81A0065
:1028300006A93E48FEF73AFA4FF6FF70ADF81000D1
:102840000020ADF80C00ADF81200ADF80E0003A9A1
:102850003748FEF71FFE0A231A4603213448FFF7C4
:1028600028FA6846FFF755F90A20ADF808006946CE
:102870002F48FFF7A2F801212D48FFF72DFC00217A
:102880002B48FFF7F7FB01212948FFF75FF907B055
:1028900000BD00B587B001210420FEF7C3FC012173
:1028A0000846FEF7BFFC01210220FEF7C8FC042009
:1028B0008DF81B00C020ADF8180003208DF81A0019
:1028C00006A91A48FEF7F2F94FF6FF70ADF81000AE
:1028D0000020ADF80C00ADF81200ADF80E0003A911
:1028E0001448FEF7D7FD0A231A4603211148FFF7C3
:1028F000E0F96846FFF70DF90A20ADF808006946CF
:102900000C48FFF75AF801210A48FFF7E5FB0122BE
:1029100011460848FFF735F900210648FFF7AAFBE2
:1029200001210448FFF712F907B000BD000801407B
:10293000000C00400004004010B54021F048FEF7B4
:1029400062FA8021EE48FEF75EFA8021EC48FEF73D
:102950005CFA4021EA48FEF758FA10BD10B5402154
:10296000E748FEF750FA8021E548FEF74EFA80214D
:10297000E348FEF748FA10BD10B54021E048FEF7E5
:1029800042FA4021DE48FEF740FA10BD2DE9F04141
:1029900005462C464021DA48FEF737FA002619E0B2
:1029A000274607F08007802F04D18021D448FEF706
:1029B0002AFA03E08021D248FEF727FA6006040EC7
:1029C0004021CF48FEF71FFA4021CD48FEF71DFAFF
:1029D000701CC6B2082EE3DBBDE8F08110B50446DA
:1029E000FFF7AAFF7820FFF7D1FFFFF7C5FF002010
:1029F000FFF7CCFFFFF7C0FF2046FFF7C7FFFFF749
:102A0000BBFFFFF7ABFF10BD10B50446FFF794FF07
:102A10007820FFF7BBFFFFF7AFFF4020FFF7B6FFBF
:102A2000FFF7AAFF2046FFF7B1FFFFF7A5FFFFF76B
:102A300095FF10BD70B505460C461CB12846FFF742
:102A4000E3FF02E02846FFF7C9FF70BD70B5002420
:102A500019E004F1B001C8B20021FFF7EBFF00213B
:102A60000846FFF7E7FF00211020FFF7E3FF0025EE
:102A700005E001210020FFF7DDFF681CC5B2802DB5
:102A8000F7DB601CC4B2082CE3DB70BD08B5012184
:102A90001020FEF7C7FB10208DF80300C020ADF812
:102AA000000003208DF8020069469548FEF7FEF805
:102AB00040219348FEF7A7F980219148FEF7A3F93A
:102AC000C820FFF762FD0021AE20FFF7B3FF002111
:102AD0004020FFF7AFFF0021B020FFF7ABFF002140
:102AE000C820FFF7A7FF00218120FFF7A3FF0021E7
:102AF000FF20FFF79FFF0021A120FFF79BFF002190
:102B0000A620FFF797FF0021A820FFF793FF0021E1
:102B10001F20FFF78FFF0021D320FFF78BFF00213D
:102B20000846FFF787FF0021D520FFF783FF00212C
:102B3000F020FFF77FFF0021D920FFF77BFF002166
:102B40002220FFF777FF0021DA20FFF773FF002133
:102B50000220FFF76FFF0021DB20FFF76BFF002152
:102B60004920FFF767FF00218D20FFF763FF002159
:102B70001420FFF75FFF0021AF20FFF75BFFFFF797
:102B800065FF08BD70B504460D4605F1B001C8B239
:102B90000021FFF74FFF102141EA14100021FFF739
:102BA00049FF04F00F000021FFF744FF70BD2DE93D
:102BB000F04707460E46904699460025A8F12000AA
:102BC000C5B27F2F02DD0027B01CC6B2B9F1100FCD
:102BD00024D131463846FFF7D5FF002408E004EB46
:102BE0000511484A505C0121FFF724FF601CC4B264
:102BF000082CF4DB701CC1B23846FFF7C3FF002479
:102C000009E004EB051108313E4A505C0121FFF751
:102C100011FF601CC4B2082CF3DB12E031463846C9
:102C2000FFF7B0FF00240AE005EB4501364A02EB4E
:102C30004101085D0121FFF7FDFE601CC4B2062CB6
:102C4000F2DBBDE8F0872DE9F04704460E46174653
:102C50009846DDF8209000250FE07A5D4346314626
:102C60002046FFF7A4FF04F10800C4B2802C02DD67
:102C70000024B01CC6B2681CC5B2785D0028ECD137
:102C80000FE04346202231462046FFF790FF04F133
:102C90000800C4B2802C02DD0024B01CC6B2681C3F
:102CA000C5B24D45EDDBBDE8F08770B502460D4677
:102CB0000026294632B9302001F8010B00200870A7
:102CC000284670BD002A03DA2D2001F8010B52427C
:102CD00042F210730DE092FBF3F404B936B104F143
:102CE000300001F8010B04FB132201260A2093FB9C
:102CF000F0F3002BEFDC002008702846E1E700002D
:102D000000100140963A00086E38000830B589B0CE
:102D100005460C4601210920FEF784FA0121042012
:102D2000FEF78DFA18208DF823004FF47070ADF87F
:102D3000200003208DF8220008A91D48FDF7B6FFEA
:102D4000ADF81850ADF814400020ADF81A00ADF8F9
:102D5000160005A91748FEF79DFB6020ADF804009A
:102D60000020ADF80C000120ADF806000020ADF801
:102D70000A0001A90F48FEF7CAFB01A90D48FEF79A
:102D800008FC01210B48FEF7EDFE08210948FFF77A
:102D90000DF808210748FFF712F801210548FEF752
:102DA000D5FF01210348FEF7D1FE09B030BD000078
:102DB000000C0140000800407FB505460C4601218B
:102DC000C802FEF72FFA0020ADF80A00ADF80600A1
:102DD000ADF80850ADF8044001A90E48FEF75AFBC3
:102DE000012211460B48FEF7CCFE19208DF8000099
:102DF00001208DF8030000208DF8010003208DF8DC
:102E000002006846FDF737FB01210248FEF79EFEEF
:102E10007FBD0000002C014010B586B004460121A2
:102E20000420FEF7FFF901214804FEF708FA1820F4
:102E30008DF817000420ADF8140003208DF816005B
:102E400005A94748FDF732FF04208DF81700082038
:102E5000ADF8140005A94248FDF728FF26208DF89B
:102E6000000001208DF8030000208DF801000220F1
:102E70008DF802006846FDF7FEFA01940020ADF8D7
:102E800010000C20ADF80E000020ADF80C00ADF8DD
:102E90000A00ADF8080001A93248FFF778F90122CD
:102EA00040F225512F48FFF70AFA01212D48FFF77C
:102EB000FAF906B010BD10B540F225512948FFF7C8
:102EC000E3FA10B32748FFF75FFAC4B22648008838
:102ED00000F40040C8B92448008800F4804060B184
:102EE0000A2C03D000202049088020E01E480088DA
:102EF00040F400401C49088019E00D2C06D11A4806
:102F0000008840F480401849088010E01648008886
:102F1000C0F30D0015490C5413480088401C124999
:102F2000088008460088C82801DD0020088010BD00
:102F300070B50546284600F06EFAC6B200240CE0D3
:102F4000295D0848FFF71CFA00BF80210548FFF7FC
:102F500085FA0028F9D0601CC4B2B442F0DB70BD21
:102F600000080140004400403200002038010020E9
:102F700000B58BB001210846FEF747F94FF48050A9
:102F80000390002002900A904F4801904FF4806017
:102F9000079080200590202008904C4800908015D4
:102FA0000690002004904FF400500990694648486C
:102FB000FDF794FD0BB000BD00B587B001210820DE
:102FC000FEF730F901214802FEF72CF94FF40040DA
:102FD000FEF78CF800208DF81B000120ADF81800DA
:102FE00006A93C48FDF762FE3848001FFDF7ACFA21
:102FF00000208DF8090004904FF460200390002019
:10300000019001208DF8140000208DF8080001A91E
:103010002E48001FFDF7BFFA01212C48001FFDF7C5
:10302000F1FA01212948001FFDF7E1FAFFF7A0FF9F
:103030002648001FFDF7FDFA00BF2448001FFDF7DA
:10304000FDFA0028F9D12148001FFDF701FB00BF60
:103050001E48001FFDF701FB0028F9D107B000BD95
:1030600010B504460723012221461848001FFDF72A
:103070002AFB01211548001FFDF7F9FA00BF0221C4
:103080001248001FFDF764FC0028F8D00F48001F0D
:10309000FDF780FB10BD2DE9F04107460C460026E8
:1030A000002509E03846FFF7DBFF304486B20520F3
:1030B000FFF76BFA681CC5B2A542F3DB96FBF4F090
:1030C00080B2BDE8F08100003400002004240140FB
:1030D00008000240000C014010B501217C48FEF7B9
:1030E000FEFF38B301217A48FFF70AF87948FEF766
:1030F000E4FF0446C01704EB907080107649086026
:103100007648FEF7DAFF0446C01704EB9070801093
:103110007349086000216F48FEF7ACFF00216F483B
:10312000FEF7A8FF6F48006808B9012000E0002002
:103130006C49086010BD0146002901DA484200E0F0
:103140000846704708B501210820FEF76BF81020EB
:103150008DF803003C20ADF8000003208DF802003C
:1031600069466148FDF7A2FD08BD10B50446012C73
:1031700010D110215C48FDF746FE20215A48FDF78A
:1031800044FE04215848FDF73EFE08215648FDF74D
:103190003CFE0FE010215448FDF737FE2021524835
:1031A000FDF731FE04215048FDF72FFE08214E485F
:1031B000FDF729FE10BD4D48006820B94C48006855
:1031C00032304B4908604B48006820B948480068D5
:1031D00032384749086046480068002802DA002073
:1031E0004349086042480068B0F5167F03DD4FF49C
:1031F00016703F49086070472DE9FC5F0C46364861
:103200000068051B3C4801684FF0804000F0EEF973
:103210000190284600F0D2F90090019900F0B2FA2E
:10322000834636480168584600F04AF982463448D9
:103230000168504600F0DAF980462F4801683148AD
:10324000006800F0D3F90190284600F0B7F900902B
:1032500029480168009800F095FA83462A480168D9
:10326000584600F0C3F98246019900F029F98146D9
:10327000414600F025F9074600F084F90646284645
:1032800000F09CF91C490860084600681B4908606A
:103290003046BDE8FC9F4FF4E1501C4909684242AA
:1032A000914202DA4142194A116018490968814283
:1032B00001DD16490860704710B514480068FFF733
:1032C0003AFF84B221461248FEF7D8FE10BD000036
:1032D000002C0140000C0040380000200004004099
:1032E0003C00002088812242000C0140140122424F
:1032F000440000203C0121424C00002050000020EE
:10330000600000205C0000205800002068000020C1
:10331000000800401FB50A20082330A200210090B9
:103320000846FFF790FC01A92E480068FFF7BDFC96
:103330000A20082301AA002100902D20FFF783FC1A
:1033400001A929480068FFF7B0FC0A20082301AA58
:10335000002100905A20FFF776FC0A20082323A2C0
:10336000012100900020FFF76EFC01A922480068AF
:10337000FFF79BFC0520082301AA012100905020A3
:10338000FFF761FC0A2008231CA202210090002004
:10339000FFF759FC01A91B480068FFF786FC0520D0
:1033A000082301AA022100905020FFF74CFC0A20BC
:1033B000082315A2032100900020FFF744FC01A977
:1033C00013480068FFF771FC0A20082301AA0321B3
:1033D00000905020FFF737FC1FBD0000636F64654D
:1033E0003A000000380000203C0000205365745073
:1033F000756C73653A000000440000207470776DAE
:103400003A000000680000204144433A00000000F8
:1034100034000020704710B5431C02E010F8011B77
:1034200071B18107FAD14FF0013202C88C1A8C4376
:1034300014EAC211F9D0C01A0A0603D0C01E10BD8A
:10344000C01A10BD0A0401D0801E10BD0902FCD0B4
:10345000401E10BD7047704770477047754600F0BA
:103460002BF8AE4605006946534620F00700854616
:1034700018B020B5FCF7E8FFBDE820404FF000068B
:103480004FF000074FF000084FF0000B21F007014C
:10349000AC46ACE8C009ACE8C009ACE8C009ACE88F
:1034A000C0098D46704710B50446AFF30080204632
:1034B000BDE81040FCF783BE0048704700020020C2
:1034C00090EA010F48BF81F0004100F16281421A89
:1034D0003CBF801A89184FEAD0524FF07F4C1CEA4B
:1034E000410FA2EBD15318BF9CEA026F00F03B8062
:1034F0004FF0004C4CEA00204CEA012121FA03FC79
:1035000010EB0C0C1ED202F1FF325FEA1C2040EBE4
:10351000C25038BF70471CF07F0F4FEA400C18BFF5
:10352000BCF17F4F38BF7047C3F12003994008BFFB
:1035300020F00100BCF17F4F38BF7047A0F1C040C0
:1035400000F01BB94FEA3C00000A40EBC25028BF14
:103550001CF0FF0F4FEA400CE6D018BFBCF17F4FC4
:1035600038BF7047EAE79CEA026F05D010EA5C0FAB
:1035700008BF00F00040704710B500F0B8F800BF79
:1035800064FBBE3E41000B0ED3F19E0208D950F4FD
:1035900000034FEA032323FA02F048BF404270477A
:1035A00010B500F0A4F800BF4992248000207047B5
:1035B0006FF0004282EA20007047000010F00041E6
:1035C00048BF4042B0FA80F310FA03F2C3F19D0302
:1035D0000BD051EAC35101EB1220530638BF70479C
:1035E00000F1010008BF20F0010070474FF47F0C8C
:1035F0001CEAD0121EBF1CEAD11392EA0C0F93EA08
:103600000C0F00F0478090EA010F48BF42F480722F
:103610004FF0004C4CEA00204CEA012102EB03027F
:10362000A0FB0113A2F50002002918BF43F001031B
:103630005B0028BF4FEA330342EB22425FEA132CC0
:103640004CEBC2502EBFBCEB436FB2F57C0F704702
:103650004FEA036CBCF1004F08BF20F00100B2F547
:103660007C0F38BF70470BD582F0FF0212F5803F08
:10367000C8BF704700F1C040D8BF00F0004070479D
:1036800000F5000C5FEA4C0C48BF7047B0F1C04039
:1036900000F073B890EA010F0CEAD11348BF42F46E
:1036A0008072624538BF634504D280EA010000F0B1
:1036B0000040704710B500F01AF800BF8900013EC5
:1036C00000F007B800F009B85FEA410C5FEA1C6C33
:1036D00008D080EA010000F050B85FEA400C5FEAD1
:1036E0001C6CF6D14FF00040A0F5800070470EF141
:1036F000020E2EF0030E5EF8044B244204D44FEA6F
:103700004102B2F17F4F11D84FEA4003B3F17F4F2E
:103710000CD80ED14FEAD07CB2F17F4F0CEB4C0CA1
:103720000CF1020C08BF4CEBD17C04E04FF0080C0C
:1037300001E04FEAD17C0CEB4C0324FA03F404F0D3
:103740000704B4F1040C06D20EEB840CBDE8104063
:103750004CF0010C6047DFE80CF0070802024FF064
:103760000040A0F5800010BD0846420018BFD2F10D
:10377000807288BF00F0004010BDFF2141EAD050A8
:10378000C005704790EA010F48BF81F000413FF546
:103790009EAE421A04D882F00042A0EB020011440F
:1037A0004FEAD0524FF07F4C1CEA410FA2EBD153AD
:1037B00018BF9CEA026F4AD04FF0004C4CEA002040
:1037C0004CEA012121FA03FCB0EB0C0C0FD412F0EF
:1037D000FE0F36D05FEA4C001DD5001240EBC25000
:1037E00038BF70471CF03F0F18BF70470BE0A2F1C5
:1037F00001025FEA1C2040EBC25038BF70471CF04A
:103800007F0F18BF7047C3F12003994014BF401EBB
:1038100020F00100704780084FEA122308BF70476C
:10382000B0FA80FCA2EB0C02CCF1280C60FA0CF090
:1038300093EA122F04BF00EBC25070474FEAC370E7
:103840007047130A5FEADC1008BF7047F6E79CEA8E
:10385000026F04D010EA5C0F08BF0020704710B55B
:10386000FFF745FF40DFF63E81F000407047000063
:10387000000000000000002F00000000070007000B
:1038800000147F147F1400242A7F2A120062640827
:1038900013230036495522500000050300000000A4
:1038A0001C224100000041221C000014083E0814A4
:1038B0000008083E0808000000A060000008080892
:1038C0000808000060600000002010080402003EAC
:1038D0005149453E0000427F400000426151494647
:1038E000002141454B31001814127F100027454537
:1038F0004539003C4A494930000171090503003649
:103900004949493600064949291E0000363600005B
:103910000000563600000008142241000014141460
:10392000141400004122140800020151090600325B
:103930004959513E007C1211127C007F4949493699
:10394000003E41414122007F4141221C007F494904
:103950004941007F09090901003E4149497A007F38
:103960000808087F0000417F4100002040413F01DE
:10397000007F08142241007F40404040007F020C3D
:10398000027F007F0408107F003E4141413E007FDE
:1039900009090906003E4151215E007F09192946A7
:1039A0000046494949310001017F0101003F404083
:1039B000403F001F2040201F003F4038403F006331
:1039C0001408146300070870080700615149454353
:1039D00000007F41410000552A552A550000414111
:1039E0007F0000040201020400404040404000000B
:1039F00001020400002054545478007F48444438A5
:103A000000384444442000384444487F003854542B
:103A1000541800087E0901020018A4A4A47C007FA9
:103A2000080404780000447D4000004080847D004C
:103A3000007F102844000000417F4000007C0418F3
:103A40000478007C0804047800384444443800FCBE
:103A5000242424180018242418FC007C08040408DA
:103A600000485454542000043F444020003C40404F
:103A7000207C001C2040201C003C4030403C004486
:103A800028102844001CA0A0A07C004464544C448E
:103A900014141414141400000000000000000000AE
:103AA000000000000000000000F80000000000001E
:103AB00000333000000000100C06100C060000005F
:103AC00000000000000040C07840C0784000043F83
:103AD00004043F040400007088FC08300000001853
:103AE00020FF211E0000F008F000E0180000002177
:103AF0001C031E211E0000F00888700000001E211B
:103B000023241927211010160E00000000000000C9
:103B1000000000000000000000E0180402000000A7
:103B200000071820400000020418E00000000040D8
:103B3000201807000000404080F080404000020252
:103B4000010F01020200000000F00000000001016E
:103B5000011F01010100000000000000000080B012
:103B600070000000000000000000000000000001E4
:103B7000010101010101000000000000000000300F
:103B800030000000000000000000806018040060A9
:103B900018060100000000E010080810E000000F07
:103BA000102020100F00001010F80000000000206E
:103BB000203F2020000000700808088870000030B6
:103BC000282422213000003008888848300000185E
:103BD000202020110E000000C02010F80000000777
:103BE0000424243F240000F80888880808000019ED
:103BF000212020110E0000E0108888180000000F1E
:103C0000112020110E0000380808C83808000000F4
:103C1000003F000000000070880808887000001C49
:103C2000222121221C0000E010080810E000000002
:103C3000312222110F00000000C0C000000000006F
:103C40000030300000000000008000000000000094
:103C5000806000000000000080402010080000018B
:103C6000020408102000404040404040400004044E
:103C70000404040404000008102040800000002018
:103C8000100804020100007048080808F000000055
:103C9000003036010000C030C828E810E0000718E6
:103CA000272423140B000000C038E0000000203C53
:103CB00023020227382008F8888888700000203FF7
:103CC000202020110E00C03008080808380007180E
:103CD00020202010080008F808080810E000203F05
:103CE000202020100F0008F88888E8081000203FE6
:103CF00020202320180008F88888E8081000203FBA
:103D0000200003000000C030080808380000071831
:103D10002020221E020008F808000008F808203FB2
:103D2000210101213F20000808F8080800000020B8
:103D3000203F2020000000000808F8080800C0808C
:103D400080807F00000008F888C028180800203F05
:103D500020012638200008F8080000000000203F5D
:103D600020202020300008F8F800F8F80800203F54
:103D7000003F003F200008F830C00008F808203F4E
:103D8000200007183F00E01008080810E0000F109E
:103D9000202020100F0008F808080808F000203F35
:103DA000210101010000E01008080810E0000F18D0
:103DB000242438504F0008F8888888887000203FF5
:103DC0002000030C302000708808080838000038F4
:103DD000202121221C00180808F8080818000000FB
:103DE000203F2000000008F808000008F808001F25
:103DF000202020201F000878880000C83808000014
:103E000007380E010000F80800F80008F800033C2D
:103E10000700073C030008186880806818082030F5
:103E20002C03032C30200838C800C83808000000D4
:103E3000203F2000000010080808C838080020387B
:103E4000262120201800000000FE020202000000CF
:103E5000007F40404000000C30C000000000000027
:103E600000010638C00000020202FE00000000400F
:103E700040407F0000000000040202020400000035
:103E80000000000000000000000000000000808032
:103E9000808080808080000202040000000000001A
:103EA00000000000000000008080808000000019F9
:103EB000242222223F2008F8008080000000003FDA
:103EC000112020110E000000008080800000000EF4
:103ED000112020201100000000808088F800000ED2
:103EE000112020103F200000808080800000001FF3
:103EF000222222221300008080F088888818002067
:103F0000203F202000000000808080808000006B27
:103F100094949493600008F8008080800000203F13
:103F2000210000203F200080989800000000002021
:103F3000203F20200000000000809898000000C072
:103F40008080807F000008F8000080808000203F93
:103F500024022D302000000808F800000000002096
:103F6000203F202000008080808080808000203FD3
:103F700020003F20003F8080008080800000203FA4
:103F8000210000203F200000808080800000001F72
:103F9000202020201F00808000808000000080FF03
:103FA000A12020110E000000008080808000000E03
:103FB000112020A0FF808080800080808000202051
:103FC0003F212000010000008080808080000033BD
:103FD000242424241900008080E080800000000058
:103FE000001F202000008080000000808000001F53
:103FF000202020103F2080808000008080800001F1
:104000000E300806010080800080008080800F3024
:104010000C030C300F0000808000808080000020A6
:10402000312E0E31200080808000008080808081D1
:104030008E70180601000080808080808000002142
:10404000302C2221300000000000807C02020000A1
:104050000000003F404000000000FF0000000000A2
:104060000000FF0000000002027C80000000004011
:10407000403F0000000000060101020204040000AD
:104080000000000000000000A84000080000002020
:10409000700000006C01000818410008700000204A
:1040A000F00700008801000800A24A040000000098
:1040B00000000000010203040607080900000000D8
:1040C00001020304010203040607080902040608AA
:1040D00000000000000000000000000000000000E0
:1040E00000000000000000000000000000000000D0
:1040F00000000000000000000000000000000000C0
:104100000000A0410000F0410000A04100000000BC
:084110000000000000000000A7
:0400000508000131BD
:00000001FF
